:020000040000FA
:0400000077EF3AF06C
:106F5600C282C2B2FED7C4501200A69EA69CA680CC
:106F6600A8501200D3508F0B5009D36E120043EC79
:106F760038F05DEC3DF0FFD7016E9EA8FED701C04C
:106F8600ADFF120078AAAABEFA42058CA8B9B9FFCD
:106F9600829082929484849084929684000E806E6D
:106FA6001200000E026E3F0E51EC38F0022A590E06
:106FB6000264F9D71200E8EC37F003D0808A808C9F
:106FC600808E9EA0FBD783681200320ECD6EF28CA7
:106FD600F28E9D809E90000ECF6E000ECE6ECD80FE
:106FE6001200809A809C808E828082928490848215
:106FF600320EBE6E960E0F01556F1200809A808C6F
:10700600809E8290828284908482960EBE6E320E1C
:107016000F01556F1200809A809C808E829082822A
:1070260084908482960EBE6EFA0E0F01556F120082
:10703600809A808C809E8290828284908482FA0ECE
:10704600BE6E960E0F01556F1200808A809C809E40
:107056008290828284908482FA0EBE6EFA0E0F01AE
:10706600556F1200A69EA69CA684F29E550EA76E8C
:10707600AA0EA76EA682F28EA1A8FED7A19812002C
:10708600010E0001BD6FB5EC37F0AEEC39F0A4ECA3
:1070960038F071EC38F0DBEC39F01200016E000EBE
:1070A6000F014C6F0150040DF3CF4BFF4A697EA4CC
:1070B600FED77E94000E0F014A6F12000A576861D0
:1070C6007420636F6C6F722073686F756C642073C5
:1070D600616E696320726163653F0A00C050F80BF8
:1070E6000409C06E000EC16EC250830B3009C26E19
:1070F600C09EC050C70B2809C06EC2801200000E89
:10710600BD6EBB68BE689494000E0F01496F0C0EED
:10711600BD6E000EBA6E000EBC6E9D90BA84120053
:10712600000E0F01546F526955699694040E486F0C
:107136000C0E546F000E516F000E536F7D905185EB
:1071460012009D9A9D989E9A000EEA6E000EE96EB8
:10715600240EAC6E900EAB6E190EAF6E000EB06EB6
:10716600B896948C948E000E826E000E0F013A6FC4
:10717600120002BE05D0025010E10104D8B00DD0B5
:1071860001C003F002C004F0031E041E034A042AD1
:1071960003C001F004C002F0120001C001F002C0F9
:1071A60002F0120020EEC3F010EE02F0060EDBCF66
:1071B600E3FFE806FCE2000E096E020E0924D96E12
:1071C600DA6A000EDA22DF50BFEC37F0092A050E24
:1071D6000964F3D7000EAE6E12000001BA51D8B49E
:1071E60003D0BF0E836E1200BB51D8B403D0820EFB
:1071F600836E1200BC51D8B403D0880E836E120081
:10720600BD51D8B403D0800E836E1200BE51D8B4DF
:107216001200C80E836E1200F0EC38F082EC38F0E3
:1072260093EC38F071EC38F002EC3CF0E3EC3CF017
:10723600020E79EC3BF037EC3BF09EAA0CD09E9AFE
:10724600530EAE18D8B404D0730EAE18D8A4ECD72B
:10725600CBEC37F0120081EC39F0AA0AD8B4F8D793
:10726600E3D7066E0650B3EC3AF0000E086E000E39
:10727600076E000E0A6EABEC37F0046E045007265C
:10728600000E08220A2A070E0A64F5D707C004F082
:1072960008C005F0D89005320432D8900532043281
:1072A600D890053204320450096E0950120071EC70
:1072B60038F00C0E836E0A0E51EC38F002EC3CF0FE
:1072C600000E146E500E1424D96EDA6A000EDA22FD
:1072D600DF50BFEC37F0142A040E1464F3D70A0EFD
:1072E600BFEC37F09EAAE7D79E9A530EAE18D8B4D5
:1072F6001200730EAE18D8B41200DDD75A50505C87
:10730600D8A004D05950505CD8B002D0000E12005C
:107316000001E751515CD8A0F9D7E651515CD8A0DD
:10732600F5D7E251525CD8A0F1D7E151525CD8A012
:10733600EDD7DD51535CD8A0E9D7DC51535CD8A01A
:10734600E5D7D851545CD8A0E1D7D751545CD8A022
:10735600DDD7AA0E1200000E806E000E896E000E9A
:10736600926E000E0F01386F000E816E000E8A6E4F
:10737600000E936E000E396F000E826E000E8B6E3D
:10738600000E946E000E3A6F000E836E000E8C6E29
:10739600000E956E000E3B6F000E846E000E8D6E15
:1073A600000E966E000E3C6F010E0001BD6F1200BE
:1073B60020EE88F010EE03F0090EDBCFE3FFE806BF
:1073C600FCE2000E0D6EA680000E0E6E000E0F6E15
:1073D6000DC0A9FF0D2A0E50020D030EF324D96E1F
:1073E600000EF420DA6EDECF01F0DDCF02F00F5092
:1073F6000124D96E000E0220DA6EB0EC37F0DF6E93
:107406000F2A040E0F64E4D70E2A040E0E64DED78C
:10741600120020EE92F010EE03F0090EDBCFE3FF30
:10742600E806FCE2000E0D6E000E0E6E000E0F6EEC
:107436000DC0A9FF0D2A0E50020D030EF324D96EBE
:10744600000EF420DA6EDECF01F0DDCF02F00F5031
:107456000124D96E000E0220DA6EDF50A86E35ECDC
:1074660038F00F2A040E0F64E3D70E2A040E0E64BA
:10747600DDD7A694120020EE60F010EE0BF0190E88
:10748600DBCFE3FFE806FCE2000E296E0B0E292493
:10749600D96EDA6A000EDA22DF50BFEC37F0292AFD
:1074A600180E2964F3D7000E276E000E286E0F0EF5
:1074B60034EC39F0276E050E51EC38F00F0E34EC33
:1074C60039F0286E2750285C016E026AD8A00206A1
:1074D600BCEC38F002BEEBD7025005E1330E015C7E
:1074E600D8B01200E4D71200C20EF66E700EF76E18
:1074F600000EF86E01EE00F010EE20F00900F5CF58
:10750600EEFFE550E150FAE17B0EF66E770EF76E70
:10751600000EF86E00EE60F010EE89F00900F5CF6F
:10752600EEFFE550E150FAE18A0EF66E6F0EF76E49
:10753600000EF86E00EE50F010EE0CF00900F5CFDC
:10754600EEFFE550E150FAE10001ED6BEC6BEB6B01
:10755600EA6BE96B5C6A000EF86E0001BAEF37F071
:10756600036E03C001F001460146C2500118830BA9
:107576000118C26E1CD093840F01398512009386C0
:107586000F013987120093820F013983120093800D
:107596000F0139811200938A0F01398B12009486EC
:1075A6000F013A87120093800F01398112000350B0
:1075B600016E026A0250000AD8A4F5D70150080AE3
:1075C600D8B4D9D7010AD8B4DAD7030AD8B4DBD7E6
:1075D600060AD8B4DCD7010AD8B4DDD7020AD8B473
:1075E600DED7E1D7000E066E04AE06D0036C041E8D
:1075F600D8B0042A010E066E02AE06D0016C021E39
:10760600D8B0022A010E061A000E086E000E076E8A
:1076160003500410D8B41CD0010E056E04D0D890C7
:1076260003360436052A04AEFAD7D890073608364C
:107636000350015C04500258D8A005D00350015EE7
:107646000450025A0780D89004320332052EEDD733
:107656000650D8B404D0076C081ED8B0082A07C054
:1076660001F008C002F012005C50D8A418D0000146
:10767600BA51D8B402D0570E11D0BB51D8B402D0EB
:10768600470E0CD0BC51D8B402D0420E07D0BD5123
:10769600D8A4FBD7BE51D8B402D06E0E5C6E5C5037
:1076A6000001EB19D8A403D028EC38F012005C5086
:1076B600EA19D8A403D00EEC38F012005C50EC198D
:1076C600D8A403D01BEC38F012005C50E919D8A4FA
:1076D60003D0F4EC37F012005C50ED19D8A403D0B7
:1076E60001EC38F01200DEEC37F01200036E24D005
:1076F600808080928094809680981200809080820C
:1077060080948096809812008090809280848096E3
:1077160080981200809080928094808680981200D3
:1077260080908092809480968088120080808082EB
:107736008084808680881200E90E0324D96EDA6A76
:10774600000EDA22DF50016E026A0250000AD8A447
:10775600EDD70150420AD8B4DDD7050AD8B4CED742
:10776600150AD8B4D1D7050AD8B4C2D7390AD8B4BD
:04777600D7D7DCD7AE
:10777B000A53616E696320776169747320666F7257
:10778B00206120746F7563680A000A53616E696328
:10779B0020726163657320005700E400DF00DA009C
:1077AB00D5005700E400DF00DA00D5005700E400F5
:1077BB00DF00DA00D5005700E400DF00DA00D50067
:1077CB005700E400DF00DA00D500303030303130C4
:1077DB003030004552524F520A000C0A08090D0F67
:1077EB000A536574008CB9C3C3FF8CAAAFD2FF8256
:1077FB00A5AFBCFF82B2B4BCFF000E126E0D0E1211
:10780B0024D96EDA6A000EDA22CA0E1224E16EE275
:10781B006A000EE222E75034EC39F0DF6E122A04D4
:10782B000E1264ECD7000E126E500E1224D96EDAC3
:10783B006A000EDA22CA0E1224E16EE26A000EE230
:10784B0022E75034EC39F0DF6E0D0E1224D96EDACC
:10785B006A000EDA22DF500B6E500E1224D96EDA4C
:10786B006A000EDA22DF500C6E0C500B5C016E02BC
:10787B006AD8A00206BCEC38F002BE24D002500439
:10788B00E11F0E015CD8A01ED0500E1224D96EDA67
:10789B006A000EDA220D0E1224E16EE26A000EE28D
:1078AB0022DE50E65CD8B00ED00D0E1224D96EDA63
:1078BB006A000EDA22500E1224E16EE26A000EE22A
:1078CB0022DFCFE7FF122A040E1264AED71200207C
:1078DB00EE9CF010EE12F0090EDBCFE3FFE806FC96
:1078EB00E20A0E57260A0E0001E4270A0EDF270ACA
:1078FB000EDA270A0ED527000E1D6E1D50020D1233
:10790B000EF324D96E000EF420DA6E10EE01F0DEC9
:10791B0050E126DD50E2221D50020D120EF324D948
:10792B006E000EF420DA6E00EE02F0DE50E926DD7A
:10793B0050EA22EF50106E1D50020D120EF324D997
:10794B006E000EF420DA6E00EE01F0DE50E926DD5B
:10795B0050EA22EF50116E11501024016E026A0290
:10796B0036000E046E020E036EF5EC3AF00150E792
:10797B006E000E1C6E1D50020D120EF324D96E00FC
:10798B000EF420DA6EDECF10F0DDCF11F01C5010AC
:10799B0024D96E000E1120DA6EDF50BFEC37F01CCD
:1079AB002A040E1C64E7D70A0EBFEC37F01D2A041D
:1079BB000E1D64A3D70CEC3AF0120020EEA6F010CB
:1079CB00EE05F0090EDBCFE3FFE806FCE2000E0F3D
:1079DB006E0F50020D050EF324D96E000EF420DA53
:1079EB006EDECF01F0DDCF02F001C0D9FF02C0DAAD
:1079FB00FF500E0F24E16EE26A000EE222DE50E62B
:107A0B005CD8B008D0E90E0F24D96EDA6A000EDA12
:107A1B0022570E47D00F50020D050EF324D96E00DE
:107A2B000EF420DA6E10EE01F0DE50E126DD50E2AE
:107A3B0022500E0F24D96EDA6A000EDA22E650DEDF
:107A4B005CD8B008D0E90E0F24D96EDA6A000EDAD2
:107A5B0022470E27D00F50020D050EF324D96E00CE
:107A6B000EF420DA6E10EE04F0DE50E126DD50E26B
:107A7B0022500E0F24D96EDA6A000EDA22E650DE9F
:107A8B005CD8B008D0E90E0F24D96EDA6A000EDA92
:107A9B0022420E07D0E90E0F24D96EDA6A000EDAF5
:107AAB00226E0EDF6E0F2A040E0F6492D71200A403
:107ABB000E836E20EE7AF010EE3CF00D0EDBCFE372
:107ACB00FFE806FCE2000E4E6E3C0E4E24D96EDA39
:107ADB006A000EDA22DF50BFEC37F04E2A0C0E4E46
:107AEB0064F3D70001BD05D8A404D0420EBFEC3718
:107AFB00F011D0BC05D8A404D0520EBFEC37F00A5D
:107B0B00D0BB05D8A404D0470EBFEC37F003D06E22
:107B1B000EBFEC37F00A0EBFEC37F0F29EF29C0072
:107B2B000E4D6E0BD09EAA09D04A0E4D24D96EDA9B
:107B3B006A000EDA22AECFDFFF4D2A020E4D64F241
:107B4B00D712D03EEC3AF027D0E0EC3DF024D00F2A
:107B5B00EC39F021D05AEC39F01ED0A2EC3EF01BE0
:107B6B00D0D5EC38F018D04A503A6E3B6A3B5000F7
:107B7B000AD8A4F6D73A50430AD8B4EFD70D0AD88F
:107B8B00B4E6D71E0AD8B4E0D7010AD8B4E3D703BA
:107B9B000AD8B4D7D7E5D7000E4F6E4A0E4F24D96B
:107BAB006EDA6A000EDA22000EDF6E4F2A020E4FDB
:107BBB0064F4D77DD7F90E836E21EE00F010EE0C36
:107BCB00F01F0EDBCFE3FFE806FCE220EED0F01057
:107BDB00EE2CF0040EDBCFE3FFE806FCE2000E31E7
:107BEB006E0C0E3124D96EDA6A000EDA22DF50BF2A
:107BFB00EC37F0312A1E0E3164F3D79EBA88D0FDD4
:107C0B00D7000E326EBA0E3224D96EDA6A000EDA53
:107C1B0022000EDF6E322A070E3264F4D7010E00FB
:107C2B0001BD6F000E336E2C0E3324D96EDA6A0051
:107C3B000EDA22DF50BFEC37F0332A030E3364F336
:107C4B00D71200000E346EBA0E3424D96EDA6A00E5
:107C5B000EDA22000EDF6E342A070E3464F4D701DD
:107C6B000E0001BB6F000E356E2C0E3524D96EDA6B
:107C7B006A000EDA22DF50BFEC37F0352A030E35DF
:107C8B0064F3D71200000E366EBA0E3624D96EDAB4
:107C9B006A000EDA22000EDF6E362A070E3664F407
:107CAB00D7010E0001BC6F000E376E2C0E3724D996
:107CBB006EDA6A000EDA22DF50BFEC37F0372A0398
:107CCB000E3764F3D71200000E386EBA0E3824D973
:107CDB006EDA6A000EDA22000EDF6E382A070E38D3
:107CEB0064F4D7010E0001BE6F000E396E2C0E39F5
:107CFB0024D96EDA6A000EDA22DF50BFEC37F03986
:107D0B002A030E3964F3D71200D5EC38F055D7AEF1
:107D1B00500A6E0B6A0B50000AD8A4F6D70A5042D1
:107D2B000AD8B46ED7050AD8B48CD7150AD8B4AA1A
:107D3B00D73C0AD8B4C8D7E8D76DEC3CF020EEB0EE
:107D4B00F010EE20F0090EDBCFE3FFE806FCE200BB
:107D5B000E2F6E000E306E2F50020D200EF324D915
:107D6B006E000EF420DA6EDECF1EF0DDCF1FF0308A
:107D7B00501E24D96E000E1F20DA6E000EDF6E30FF
:107D8B002A040E3064E8D72F2A040E2F64E2D700A2
:107D9B000E806EC10E836ED4EC37F0000E2A6E0C83
:107DAB000E34EC39F0316E5750315CD8B031C057CE
:107DBB00F00A0E34EC39F0316E0001E451315CD82D
:107DCB00B031C0E4F0080E34EC39F0316E0001DF55
:107DDB0051315CD8B031C0DFF0090E34EC39F031E1
:107DEB006E0001DA51315CD8B031C0DAF00D0E34CF
:107DFB00EC39F0316E0001D551315CD8B031C0D5C2
:107E0B00F02A2AF90E2A64CBD78080820E836ED497
:107E1B00EC37F0000E2B6E0C0E34EC39F0316E5843
:107E2B0050315CD8B031C058F00A0E34EC39F03117
:107E3B006E0001E551315CD8B031C0E5F0080E346D
:107E4B00EC39F0316E0001E051315CD8B031C0E05B
:107E5B00F0090E34EC39F0316E0001DB51315CD896
:107E6B00B031C0DBF00D0E34EC39F0316E0001D6C1
:107E7B0051315CD8B031C0D6F02B2AF90E2B64CB24
:107E8B00D78082880E836ED4EC37F0000E2C6E0CEC
:107E9B000E34EC39F0316E5950315CD8B031C059D9
:107EAB00F00A0E34EC39F0316E0001E651315CD83A
:107EBB00B031C0E6F0080E34EC39F0316E0001E160
:107ECB0051315CD8B031C0E1F0090E34EC39F031EE
:107EDB006E0001DC51315CD8B031C0DCF00D0E34DA
:107EEB00EC39F0316E0001D751315CD8B031C0D7CD
:107EFB00F02C2AF90E2C64CBD78084800E836ED4A1
:107F0B00EC37F0000E2D6E0C0E34EC39F0316E5A4E
:107F1B0050315CD8B031C05AF00A0E34EC39F03124
:107F2B006E0001E751315CD8B031C0E7F0080E3478
:107F3B00EC39F0316E0001E251315CD8B031C0E266
:107F4B00F0090E34EC39F0316E0001DD51315CD8A3
:107F5B00B031C0DDF00D0E34EC39F0316E0001D8CC
:107F6B0051315CD8B031C0D8F02D2AF90E2D64CB2D
:107F7B00D78086C80E836ED4EC37F0000E2E6E0CB5
:107F8B000E34EC39F0316E5B50315CD8B031C05BE4
:107F9B00F00A0E34EC39F0316E0001E851315CD847
:107FAB00B031C0E8F0080E34EC39F0316E0001E36B
:107FBB0051315CD8B031C0E3F0090E34EC39F031FB
:107FCB006E0001DE51315CD8B031C0DEF00D0E34E5
:107FDB00EC39F0316E0001D951315CD8B031C0D9D8
:107FEB00F02E2AF90E2E64CBD780886DEC3CF00076
:057FFB000E806E120073
:020000040020DA
:08000000FFFFFFFFFFFFFFFF00
:020000040030CA
:0E000000FF281F3CFFBF85FF0FC00FE00F4021
:00000001FF
