:020000040000FA
:0400000047EF3EF098
:107BEC00D3508F0B5009D36E12000CEC3EF0C8EC46
:107BFC003EF0FFD7016E9EA8FED701C0ADFF12006C
:107C0C0082B2B4BCFF8CA8B9B9FF4205010E0001C9
:107C1C00916FF6EC3DF06CEC3EF016EC3EF0120081
:107C2C009D9A9D989E9A000EEA6E000EE96E240EA7
:107C3C00AC6E900EAB6E190EAF6E000EB06EB896A9
:107C4C00948C948E000E826E000E0F013A6F12000F
:107C5C0020EE97F010EE02F0060EDBCFE3FFE80605
:107C6C00FCE2000E096E020E0924D96EDA6A000ECF
:107C7C00DA22DF5000EC3EF0092A050E0964F3D736
:107C8C001200330EF66E7D0EF76E000EF86E00EEDF
:107C9C0060F010EE5DF00900F5CFEEFFE550E1501D
:107CAC00FAE10C0EF66E7C0EF76E000EF86E00EE1E
:107CBC0051F010EE0CF00900F5CFEEFFE550E1505D
:107CCC00FAE1000EF86E0001FBEF3DF0000E806E45
:107CDC00000E896E000E926E000E0F01386F000EB2
:107CEC00816E000E8A6E000E936E000E396F000EC0
:107CFC00826E000E8B6E000E946E000E3A6F000EAC
:107D0C00836E000E8C6E000E956E000E3B6F000E97
:107D1C00846E000E8D6E000E966E000E3C6F010E82
:067D2C000001916F12003E
:107D33000A5768617420636F6C6F722073686F7584
:107D43006C642073616E696320726163653F0A002E
:107D53000A53616E6963207261636573200030307A
:107D6300303031303030004552524F520A000A53FE
:107D730065740A000C08090A0DFFFFFFFFFF8CB9A9
:107D8300C3C3FF8CAAD2AFFF82A5AFBCFFA40E83EF
:107D93006E20EE80F010EE3DF00D0EDBCFE3FFE83A
:107DA30006FCE2000E4F6E3D0E4F24D96EDA6A00D8
:107DB3000EDA22DF5000EC3EF04F2A0C0E4F64F334
:107DC300D700019105D8A404D0420E00EC3EF01177
:107DD300D09005D8A404D0520E00EC3EF00AD08F08
:107DE30005D8A404D0470E00EC3EF003D06E0E007D
:107DF300EC3EF00A0E00EC3EF0F29EF29C000E4EBA
:107E03006E0BD09EAA09D04B0E4E24D96EDA6A00AF
:107E13000EDA22AECFDFFF4E2A020E4E64F2D706F1
:107E2300D03EEC3FF01AD02EEC3EF017D04B503B37
:107E33006E3C6A3C50000AD8A4F6D73B50430AD89C
:107E4300B40CD00D0AD8B409D01E0AD8B4E9D701AE
:107E53000AD8B403D0030AD8A4E6D7000E506E4B59
:107E63000E5024D96EDA6A000EDA22000EDF6E504D
:107E73002A020E5064F4D78AD7F90E836E20EE607F
:107E8300F010EE0CF01F0EDBCFE3FFE806FCE22060
:107E9300EE9EF010EE2CF0050EDBCFE3FFE806FCC0
:107EA300E2000E326E0C0E3224D96EDA6A000EDA5C
:107EB30022DF5000EC3EF0322A1E0E3264F3D79ECE
:107EC300BA88D0FDD7000E336E8E0E3324D96EDA06
:107ED3006A000EDA22000EDF6E332A070E3364F4D3
:107EE300D7010E0001916F000E346E2C0E3424D98D
:107EF3006EDA6A000EDA22DF5000EC3EF0342A0418
:107F03000E3464F3D71200000E356E8E0E3524D96D
:107F13006EDA6A000EDA22000EDF6E352A070E359E
:107F230064F4D7010E00018F6F000E366E2C0E36EF
:107F330024D96EDA6A000EDA22DF5000EC3EF03606
:107F43002A040E3664F3D71200000E376E8E0E37F6
:107F530024D96EDA6A000EDA22000EDF6E372A07A2
:107F63000E3764F4D7010E0001906F000E386E2CAB
:107F73000E3824D96EDA6A000EDA22DF5000EC3EA6
:107F8300F0382A040E3864F3D71200000E396E8ECF
:107F93000E3924D96EDA6A000EDA22000EDF6E394A
:107FA3002A070E3964F4D7010E0001926F000E3ACE
:107FB3006E2C0E3A24D96EDA6A000EDA22DF5000F4
:107FC300EC3EF03A2A040E3A64F3D712002EEC3E4C
:107FD300F01200AE500A6E0B6A0B50000AD8A4F6DA
:107FE300D70A50420AD8B46ED7050AD8B48CD7152D
:0D7FF3000AD8B4AAD73C0AD8B4C8D7E8D73A
:020000040020DA
:08000000FFFFFFFFFFFFFFFF00
:020000040030CA
:0E000000FF281F3CFFBF85FF0FC00FE00F4021
:00000001FF
