:020000040000FA
:04000000DEEF38F007
:106F310042058CA8B9B9FFC282C2B2FED7C45012B1
:106F410000D3508F0B5009D36E1200C4EC37F0857B
:106F5100EC3AF0FFD7016E9EA8FED701C0ADFF123B
:106F610000829082929484849084929684000E8010
:106F71006E1200000E336E3F0E36EC39F0332A0EDE
:106F81000E3364F9D71200010E00019B6FA1EC379B
:106F9100F009EC39F007EC38F0D0EC37F01200C012
:106FA10050F80B0409C06E000EC16EC250830B3045
:106FB10009C26EC09EC050C70B2809C06EC28012A4
:106FC10000000EBD6EC80EBB6EC80EBE6E9494005E
:106FD1000E0F01496F0C0EBD6EFA0EBA6E000EBC9B
:106FE1006E9D90BA841200000E0F01546FC80E52AC
:106FF1006FC80E556F9694040E486F0C0E546FFABD
:107001000E516F000E536F7D90518512009D9A9D18
:10701100989E9A000EEA6E000EE96E240EAC6E90F8
:107021000EAB6E190EAF6E000EB06EB896948C94C6
:107031008E000E826E000E0F013A6F120020EEA13B
:10704100F010EE02F0060EDBCFE3FFE806FCE200F3
:107051000E096E020E0924D96EDA6A000EDA22DFF9
:1070610050ABEC37F0092A050E0964F3D7000EAED8
:107071006E120075EC38F0E1EC37F0F4EC37F0D03B
:10708100EC37F057EC38F004EC3BF0020EE4EC394D
:10709100F09EAAF5D79E9A530EAE18D8B404D073B9
:1070A1000EAE18D8A4ECD7B1EC37F01200000E0CDC
:1070B1006E000E0B6EB80E0B24D96E000E0C20DA8A
:1070C1006EA80E0B24E16E000E0C20E26EE75094C8
:1070D100EC38F0DF6E0B4A0C2A0C5005E1050E0B63
:1070E1005CD8B01200E7D7120000019851D8B40360
:1070F100D0BF0E836E12009951D8B403D0820E8393
:107101006E12009A51D8B403D0880E836E12009B80
:1071110051D8B403D0800E836E12009C51D8B412A2
:1071210000C80E836E1200066E0650A2EC39F00004
:107131000E086E000E076E000E0A6E9CEC37F0040E
:107141006E04500726000E08220A2A030E0A64F56F
:10715100D707C004F008C005F0D89005320432D832
:1071610090053204320450096E09501200D0EC37F8
:10717100F00C0E836E090E36EC39F0000E346EA859
:107181000E3424D96EDA6A000EDA22DF5094EC381C
:10719100F0ABEC37F0342A040E3464F1D70A0EABAD
:1071A100EC37F09EAAE7D79E9A530EAE18D8B412C8
:1071B10000730EAE18D8B41200DDD7D30EF66E727E
:1071C1000EF76E000EF86E00EE60F010EE71F00931
:1071D10000F5CFEEFFE550E150FAE1310EF66E6FAA
:1071E1000EF76E000EF86E00EE55F010EE07F00986
:1071F10000F5CFEEFFE550E150FAE10001D56BD487
:107201006BD36BD26BD16B000EF86E0001A6EF371A
:10721100F0000E806E000E896E000E926E000E0F51
:1072210001386F000E816E000E8A6E000E936E00A3
:107231000E396F000E826E000E8B6E000E946E0082
:107241000E3A6F000E836E000E8C6E000E956E006E
:107251000E3B6F000E846E000E8D6E000E966E005A
:107261000E3C6F010E00019B6F1200326E000E0F7B
:10727100014C6F000E136E000E146E7A0E156E40E7
:107281000E166E3250016E026A036A046A010E9E86
:10729100EC3BF001C00FF002C010F003C011F0048C
:1072A100C012F057EC3EF00FC028F010C029F011C9
:1072B100C02AF012C02BF028EC3AF028500F014BF5
:1072C1006F4A697EA4FED77E94000E0F014A6F12A9
:0172D10000BC
:1072D3000A5768617420636F6C6F722073686F75EF
:1072E3006C642073616E696320726163653F0A0099
:1072F3000A53616E696320726163657320005700EE
:10730300CC00C700C200BD003030303031303030E7
:10731300004552524F520A000C0A08090D0F0A5336
:107323006574000C08090A0D78AAAABEFA8CB9C3C1
:10733300C3FF8CAAAFD2FF82A5AFBCFF82B2B4BC9D
:10734300FF036E03C001F001460146C250011883DA
:107353000B0118C26E1CD093840F01398512009360
:10736300860F013987120093820F0139831200932C
:10737300800F0139811200938A0F01398B12009417
:10738300860F013A87120093800F0139811200039F
:1073930050016E026A0250000AD8A4F5D7015008C2
:1073A3000AD8B4D9D7010AD8B4DAD7030AD8B4DBD8
:1073B300D7060AD8B4DCD7010AD8B4DDD7020AD875
:1073C300B4DED7E1D7036E24D0808080928094808E
:1073D3009680981200809080828094809680981284
:1073E30000809080928084809680981200809080A4
:1073F30092809480868098120080908092809480FE
:1074030096808812008080808280848086808812A3
:1074130000D10E0324D96EDA6A000EDA22DF50019E
:107423006E026A0250000AD8A4EDD70150420AD86E
:10743300B4DDD7050AD8B4CED7150AD8B4D1D70549
:107443000AD8B4C2D7390AD8B4D7D7DCD72A342B51
:1074530034316E3150D8A409D0000E286E000E29A5
:107463006E000E2A6E000E2B6E120028C02CF0291F
:10747300C02DF02AC02EF02BC02FF0200E05D0D83F
:10748300902F322E322D322C32E82EF9D72C503059
:107493006E2A8EFF0E2816FF0E2916FF0E2A1600DF
:1074A3000E2B16960E315E31AE0DD03150800A97F9
:1074B3000FD8A0D2D7D8902B322A32293228323192
:1074C3003EF9D70DD01F0E316407D0C6D7D8902808
:1074D3003629362A362B3631063150D8A4F7D73021
:1074E30050D8B408D02B1E2A1E291E286C000E2942
:1074F300222A222B2228C028F029C029F02AC02AB8
:10750300F02BC02BF01200A40E836E20EE80F0103F
:10751300EE41F00D0EDBCFE3FFE806FCE2000E5375
:107523006E410E5324D96EDA6A000EDA22DF50ABB5
:10753300EC37F0532A0C0E5364F3D700019B05D8A4
:10754300A404D0420EABEC37F011D09A05D8A404B2
:10755300D0520EABEC37F00AD09905D8A404D0472B
:107563000EABEC37F003D06E0EABEC37F00A0EAB7C
:10757300EC37F0F29EF29C000E526E0BD09EAA09DD
:10758300D04F0E5224D96EDA6A000EDA22AECFDF64
:10759300FF522A020E5264F2D70FD03EEC3CF02386
:1075A300D03AEC38F020D0B7EC38F01DD000EC3DE9
:1075B300F01AD01FEC38F017D04F503F6E406A409E
:1075C30050000AD8A4F6D73F50430AD8B4EFD70DDA
:1075D3000AD8B4E6D71E0AD8B4E0D7010AD8B4E370
:1075E300D7030AD8A4E6D7000E546E4F0E5424D9FD
:1075F3006EDA6A000EDA22000EDF6E542A020E548F
:1076030064F4D781D720EE8EF010EE05F0090EDB7F
:10761300CFE3FFE806FCE2000E0F6E0F50020D05EC
:107623000EF324D96E000EF420DA6EDECF01F0DD06
:10763300CF02F001C0D9FF02C0DAFFB80E0F24E178
:107643006EE26A000EE222DE50E65CD8B008D0D1CA
:107653000E0F24D96EDA6A000EDA22570E67D00FA6
:1076630050020D050EF324D96E000EF420DA6E10CD
:10767300EE01F0DE50E126DD50E222B80E0F24D9F0
:107683006EDA6A000EDA22E650DE5CD8B008D0D19A
:107693000E0F24D96EDA6A000EDA22470E47D00F96
:1076A30050020D050EF324D96E000EF420DA6E108D
:1076B300EE02F0DE50E126DD50E222B80E0F24D9AF
:1076C3006EDA6A000EDA22E650DE5CD8B008D0D15A
:1076D3000E0F24D96EDA6A000EDA22520E27D00F6B
:1076E30050020D050EF324D96E000EF420DA6E104D
:1076F300EE03F0DE50E126DD50E222B80E0F24D96E
:107703006EDA6A000EDA22E650DE5CD8B008D0D119
:107713000E0F24D96EDA6A000EDA22420E07D0D198
:107723000E0F24D96EDA6A000EDA226E0EDF6E0FA8
:107733002A040E0F6472D71200096E0950D8A404EC
:10774300AE1AD001C005F002C006F003C007F00472
:10775300C008F0051E061E071E081E052A000E0699
:10776300220722082205C00BF006C00CF007C00D4B
:10777300F008C00EF008D001C00BF002C00CF003FB
:10778300C00DF004C00EF00150021003100410D815
:10779300A409D0000E016E000E026E000E036E00EF
:1077A3000E046E1200960E0A6E06D00A2AD8900EA8
:1077B300320D320C320B32000E0B14056E000E0C20
:1077C30014066E000E0D14076EFE0E0E14086E05E1
:1077D30050061007100810D8B40DD0E7D70A2A01B5
:1077E3000E0B26000E0C220D220E22D8900E320D07
:1077F300320C320B32000E0B14056E000E0C140605
:107803006E000E0D14076EFF0E0E14086E05500663
:107813001007100810D8B407D0E1D70A06D8900B88
:10782300360C360D360E360DBE03D0020E0A60F549
:10783300D70AA00D9ED8900A320AC005F0066A073F
:107843006A086A05C008F0076A066A056A05500BEC
:107853001206500C1207500D1208500E120950D880
:10786300A404AE01D00E8E0BC001F00CC002F00DCB
:10787300C003F00EC004F01200F90E836E20EE6018
:10788300F010EE0CF01F0EDBCFE3FFE806FCE22066
:10789300EEAEF010EE2CF0040EDBCFE3FFE806FCB7
:1078A300E2000E316E0C0E3124D96EDA6A000EDA64
:1078B30022DF50ABEC37F0312A1E0E3164F3D79E32
:1078C300BA88D0FDD7000E326E980E3224D96EDA04
:1078D3006A000EDA22000EDF6E322A070E3264F4DB
:1078E300D7010E00019B6F000E336E2C0E3324D98B
:1078F3006EDA6A000EDA22DF50ABEC37F0332A037C
:107903000E3364F3D71200000E346E980E3424D96C
:107913006EDA6A000EDA22000EDF6E342A070E34A6
:1079230064F4D7010E0001996F000E356E2C0E35ED
:1079330024D96EDA6A000EDA22DF50ABEC37F03569
:107943002A030E3564F3D71200000E366E980E36F6
:1079530024D96EDA6A000EDA22000EDF6E362A07A9
:107963000E3664F4D7010E00019A6F000E376E2CA9
:107973000E3724D96EDA6A000EDA22DF50ABEC3709
:10798300F0372A030E3764F3D71200000E386E98CF
:107993000E3824D96EDA6A000EDA22000EDF6E3852
:1079A3002A070E3864F4D7010E00019C6F000E39CC
:1079B3006E2C0E3924D96EDA6A000EDA22DF50AB50
:1079C300EC37F0392A030E3964F3D712001FEC3871
:1079D300F055D7AE500A6E0B6A0B50000AD8A4F6C6
:1079E300D70A50420AD8B46ED7050AD8B48CD71533
:1079F3000AD8B4AAD73C0AD8B4C8D7E8D7000E80AF
:107A03006E20EEB3F010EE34F0040EDBCFE3FFE8AC
:107A130006FCE2C10E836E000E396E0C0E94EC3838
:107A2300F03E6E57503E5CD8B03EC057F00A0E94FD
:107A3300EC38F03E6E0001CC513E5CD8B03EC0CC79
:107A4300F0080E94EC38F03E6E57503E5CD8B03ED2
:107A5300C0C7F0090E94EC38F03E6E57503E5CD828
:107A6300B03EC0C2F00D0E94EC38F03E6E57503E5F
:107A73005CD8B03EC0BDF0392AF90E3964CED78048
:107A830080BAEC37F0BAEC37F0BAEC37F0BAEC372F
:107A9300F0BAEC37F0BAEC37F0820E836E000E3A90
:107AA3006E0C0E94EC38F03E6E58503E5CD8B03EEF
:107AB300C058F00A0E94EC38F03E6E0001CD513EF2
:107AC3005CD8B03EC0CDF0080E94EC38F03E6E5852
:107AD300503E5CD8B03EC0C8F0090E94EC38F03E7E
:107AE3006E58503E5CD8B03EC0C3F00D0E94EC38D7
:107AF300F03E6E58503E5CD8B03EC0BEF03A2AF914
:107B03000E3A64CED78082BAEC37F0BAEC37F0BACB
:107B1300EC37F0BAEC37F0BAEC37F0BAEC37F08860
:107B23000E836E000E3B6E0C0E94EC38F03E6E59D5
:107B3300503E5CD8B03EC059F00A0E94EC38F03E8B
:107B43006E0001CE513E5CD8B03EC0CEF0080E941C
:107B5300EC38F03E6E59503E5CD8B03EC0C9F009D7
:107B63000E94EC38F03E6E59503E5CD8B03EC0C423
:107B7300F00D0E94EC38F03E6E59503E5CD8B03E9A
:107B8300C0BFF03B2AF90E3B64CED78084BAEC37F2
:107B9300F0BAEC37F0BAEC37F0BAEC37F0BAEC37AE
:107BA300F0BAEC37F0800E836E000E3C6E0C0E9430
:107BB300EC38F03E6E5A503E5CD8B03EC05AF00AE4
:107BC3000E94EC38F03E6E0001CF513E5CD8B03ECF
:107BD300C0CFF0080E94EC38F03E6E5A503E5CD89D
:107BE300B03EC0CAF0090E94EC38F03E6E5A503ED7
:107BF3005CD8B03EC0C5F00D0E94EC38F03E6E5A22
:107C0300503E5CD8B03EC0C0F03C2AF90E3C64CE76
:107C1300D78086BAEC37F0BAEC37F0BAEC37F0BA63
:107C2300EC37F0BAEC37F0BAEC37F0C80E836E00DD
:107C33000E3D6E0C0E94EC38F03E6E5B503E5CD8FD
:107C4300B03EC05BF00A0E94EC38F03E6E0001D0FB
:107C5300513E5CD8B03EC0D0F0080E94EC38F03EF4
:107C63006E5B503E5CD8B03EC0CBF0090E94EC384E
:107C7300F03E6E5B503E5CD8B03EC0C6F00D0E9435
:107C8300EC38F03E6E5B503E5CD8B03EC0C1F03D78
:107C93002AF90E3D64CED78088BAEC37F0BAEC37B8
:107CA300F0BAEC37F0000E806E12001250800B1BFE
:107CB3006E12501224216E11BE21802150D8B40DB2
:107CC300D02128D8A408D0000E0F6E000E106E002D
:107CD3000E116E000E126E118E08D0000E0F6E0084
:107CE3000E106E000E116E000E126E1650800B1BDE
:107CF3001A16501624206E15BE20802050D8B40DBD
:107D0300D02028D8A408D0000E136E000E146E00E5
:107D13000E156E000E166E158E08D0000E136E0033
:107D23000E146E000E156E000E166E2050D8B4039E
:107D3300D02150D8A409D0000E0F6E000E106E0093
:107D43000E116E000E126E120015500F02F3CF26A5
:107D5300F0F4CF27F026501C6E1D6A1E6A1F6A2797
:107D630050226E236A246A256A14501002F3CF2628
:107D7300F0F4CF27F026501C26000E1D221E221FD2
:107D83002227502226000E232224222522135011BB
:107D930002F3CF26F0F4CF27F026501C26000E1D49
:107DA300221E221F2227502226000E2322242225B0
:107DB300221EC01FF01DC01EF01CC01DF01C6A1344
:107DC300501002F3CF26F0F4CF27F026501C2627BD
:107DD300501D22000E1E22000E1F2214500F02F30C
:107DE300CF26F0F4CF27F026501C2627501D220063
:107DF3000E1E22000E1F221EC01FF01DC01EF01CEF
:107E0300C01DF01C6A13500F02F3CF26F0F4CF27E6
:107E1300F026501C2627501D22000E1E22000E1F86
:107E23002215501002F3CF26F0F4CF27F02650226C
:107E33002627502322000E2422000E25221450113F
:107E430002F3CF26F0F4CF27F02650222627502323
:107E530022000E2422000E252215501102F3CF26F4
:107E6300F0F4CF27F02650176E2750186E196A1AB0
:107E73006A19C01AF018C019F017C018F0176A175A
:107E830050222618502322195024221A5025221C2E
:107E9300C017F01DC018F01EC019F01FC01AF0194A
:107EA3000E05D0D8901A32193218321732E82EF94B
:107EB300D71750222618502322195024221A50254E
:107EC300221EC01FF01DC01EF01CC01DF01C6A2026
:107ED3005021C017F0186A1726000E1822820E17B9
:107EE30024266EFF0E1820276E0FD0D8902236233B
:107EF30036243625361FBE2280D8901C361D361EEA
:107F0300361F362606D8A0270624AEEFD7000E204C
:107F13006E1FAE17D0FF0E1C14176EFF0E1D141824
:107F23006EFF0E1E14196E7F0E1F141A6E17501853
:107F33001019101A10D8B403D0010E206E02D022EB
:107F4300B0FBD72050D8B41FD0010E2226000E2339
:107F5300222422252225A017D022C017F023C018DF
:107F6300F024C019F025C01AF01A341A3219321845
:107F730032173217C022F018C023F019C024F01AA8
:107F8300C025F0264A272A27BE0DD0275003E12615
:107F930028D8A008D0000E226E000E236E800E2477
:107FA3006E7F0E20D027BE05D027500EE12604D8C1
:107FB300B00BD0000E226E000E236E000E246E0056
:107FC3000E256E000E1B6E0FD026C021F0FF0E2271
:107FD30016FF0E23167F0E2416000E251621B0243D
:107FE3008ED8902130256E1B50251222C00FF0230E
:0D7FF300C010F024C011F025C012F01200E3
:020000040020DA
:08000000FFFFFFFFFFFFFFFF00
:020000040030CA
:0E000000FF281F3CFFBF85FF0FC00FE00F4021
:00000001FF
