:020000040000FA
:040000006BEF04F0AE
:10060000000A004200470052006E0000F90E836E9F
:1006100020EE60F010EE0CF01F0EDBCFE3FFE806DB
:10062000FCE2000E326E0C0E3224D96EDA6A000E35
:10063000DA22DF50D4EC04F0322A1E0E3264F3D7F3
:100640009EBA4CD0FDD7000E336E8D0E3324D96E7A
:10065000DA6A000EDA22000EDF6E332A070E3364E8
:10066000F4D7010E0001906F4ED0000E346E8D0E47
:100670003424D96EDA6A000EDA22000EDF6E342AD4
:10068000070E3464F4D7010E00018E6F3CD0000ECB
:10069000356E8D0E3524D96EDA6A000EDA22000E20
:1006A000DF6E352A070E3564F4D7010E00018F6F17
:1006B0002AD0000E366E8D0E3624D96EDA6A000E00
:1006C000DA22000EDF6E362A070E3664F4D7010EEA
:1006D0000001916F18D090EC04F015D0AE500A6E66
:1006E0000B6A0B50000AD8A4F6D70A50420AD8B4B5
:1006F000AAD7050AD8B4B9D7150AD8B4C8D73C0ABE
:10070000D8B4D7D7E8D720EE9DF010EE2CF0050E28
:10071000DBCFE3FFE806FCE2000E376E2C0E372439
:10072000D96EDA6A000EDA22DF50D4EC04F0372AF0
:10073000040E3764F3D71200A40E836E20EE80F00F
:1007400010EE3AF00C0EDBCFE3FFE806FCE2000E01
:100750004B6E3A0E4B24D96EDA6A000EDA22DF5065
:10076000D4EC04F04B2A0B0E4B64F3D70001900538
:10077000D8A404D0030ED4EC04F011D08F05D8A473
:1007800004D0070ED4EC04F00AD08E05D8A404D00F
:10079000050ED4EC04F003D0090ED4EC04F0010EE5
:1007A000D4EC04F0F29EF29C000E4A6E0BD09EAA8E
:1007B00009D0470E4A24D96EDA6A000EDA22AECF8B
:1007C000DFFF4A2A020E4A64F2D706D006EC03F095
:1007D0001AD090EC04F017D04750386E396A39506F
:1007E000000AD8A4F6D73850430AD8B40CD00D0A62
:1007F000D8B409D01E0AD8B4E9D7010AD8B403D0B6
:10080000030AD8A4E6D7000E4C6E470E4C24D96ECE
:10081000DA6A000EDA22000EDF6E4C2A020E4C64F9
:10082000F4D78AD7000E806E000E896E000E926E8D
:10083000000E0F01386F000E816E000E8A6E000EE2
:10084000936E000E396F000E826E000E8B6E000EDE
:10085000946E000E3A6F000E836E000E8C6E000ECA
:10086000956E000E3B6F000E846E000E8D6E000EB6
:10087000966E000E3C6F010E0001906F12000A5739
:1008800068617420636F6C6F722073686F756C643D
:100890002073616E696320726163653F0A00536172
:1008A0006E696320726163657320003030303031CF
:1008B000303030004552524F520A000A5365740AD4
:1008C000000C08090A0DFFFFFFFFFF8CB9C3C3FF2F
:0508D0008CAAD2AFFF6D
:1008D6007E0EF66E080EF76E000EF86E00EE60F0F5
:1008E60010EE57F00900F5CFEEFFE550E150FAE1C2
:1008F600960EF66E090EF76E000EF86E00EE4DF0CF
:1009060010EE11F00900F5CFEEFFE550E150FAE1E7
:10091600000EF86E0001DAEF04F020EE96F010EE0D
:1009260002F0060EDBCFE3FFE806FCE2000E096EDE
:10093600020E0924D96EDA6A000EDA22DF50D4ECF0
:1009460004F0092A050E0964F3D712009D9A9D98B2
:100956009E9A000EEA6E000EE96E240EAC6E900EA4
:10096600AB6E190EAF6E000EB06EB896948C948E68
:10097600000E826E000E0F013A6F1200010E00018A
:10098600906FDFEC04F012EC04F0A9EC04F0120016
:1009960082A5AFBCFF82B2B4BCFF8CA8B9B9FF4236
:0109A600054B
:1009A800016E9EA8FED701C0ADFF1200C1EC04F095
:1009B8009CEC03F0FFD7D3508F0B5009D36E120075
:020000040020DA
:08000000FFFFFFFFFFFFFFFF00
:020000040030CA
:0E000000FF281F3CFFBF85FF0FC00FE00F4021
:00000001FF
