:020000040000FA
:0400000087EF38F05E
:106E4C00C282C2B2FED7C4501200D3508F0B50096D
:106E5C00D36E120054EC37F077EC3AF0FFD7016E9A
:106E6C009EA8FED701C0ADFF1200420582B2B4BC91
:106E7C00FF8CA8B9B9FF82908292948484908492FA
:106E8C009684000E806E1200000E336E3F0EDFEC07
:106E9C0038F0332A0E0E3364F9D71200010E0001BC
:106EAC00B56F2BEC37F0B2EC38F097EC37F060ECB8
:106EBC0037F01200C050F80B0409C06E000EC16E02
:106ECC00C250830B3009C26EC09EC050C70B28093C
:106EDC00C06EC2801200000EBD6EC80EBB6EC80E16
:106EEC00BE6E9494000E0F01496F0C0EBD6EFA0E1F
:106EFC00BA6E000EBC6E9D90BA841200000E0F018B
:106F0C00546FC80E526FC80E556F9694040E486F8E
:106F1C000C0E546FFA0E516F000E536F7D9051850D
:106F2C0012009D9A9D989E9A000EEA6E000EE96ED4
:106F3C00240EAC6E900EAB6E190EAF6E000EB06ED2
:106F4C00B896948C948E000E826E000E0F013A6FE0
:106F5C00120002BE05D0025010E10104D8B00DD0D1
:106F6C0001C003F002C004F0031E041E034A042AED
:106F7C0003C001F004C002F0120001C001F002C015
:106F8C0002F0120020EEBBF010EE02F0060EDBCF8A
:106F9C00E3FFE806FCE2000E096E020E0924D96E2E
:106FAC00DA6A000EDA22DF5035EC37F0092A050ECA
:106FBC000964F3D7000EAE6E12001EEC38F071ECC3
:106FCC0037F084EC37F060EC37F000EC38F0FDEC87
:106FDC003AF0020ED6EC39F09EAAF5D79E9A530ED3
:106FEC00AE18D8B404D0730EAE18D8A4ECD741ECBC
:106FFC0037F01200000E0C6E000E0B6ED20E0B242E
:10700C00D96E000E0C20DA6EC20E0B24E16E000E4F
:10701C000C20E26EE7503DEC38F0DF6E0B4A0C2A88
:10702C000C5005E1050E0B5CD8B01200E7D712002E
:10703C000001B251D8B403D0BF0E836E1200B3510D
:10704C00D8B403D0820E836E1200B451D8B403D0DE
:10705C00880E836E1200B551D8B403D0800E836EA7
:10706C001200B651D8B41200C80E836E1200066E10
:10707C00065051EC39F0000E086E000E076E000E33
:10708C000A6E26EC37F0046E04500726000E082218
:10709C000A2A030E0A64F5D707C004F008C005F0ED
:1070AC00D89005320432D890053204320450096E5F
:1070BC000950120060EC37F00C0E836E090EDFECF9
:1070CC0038F0000E346EC20E3424D96EDA6A000E1B
:1070DC00DA22DF503DEC38F035EC37F0342A040E70
:1070EC003464F1D70A0E35EC37F09EAAE7D79E9A96
:1070FC00530EAE18D8B41200730EAE18D8B41200DA
:10710C00DDD7260EF66E730EF76E000EF86E00EEDF
:10711C0060F010EE86F00900F5CFEEFFE550E1507F
:10712C00FAE1760EF66E6E0EF76E000EF86E00EE4D
:10713C0054F010EE0CF00900F5CFEEFFE550E150E5
:10714C00FAE10001FE6BFD6BFC6BFB6BFA6B000E46
:10715C00F86E000130EF37F0000E806E000E896E75
:10716C00000E926E000E0F01386F000E816E000E35
:10717C008A6E000E936E000E396F000E826E000E3A
:10718C008B6E000E946E000E3A6F000E836E000E26
:10719C008C6E000E956E000E3B6F000E846E000E12
:1071AC008D6E000E966E000E3C6F010E0001B56FD9
:1071BC001200326E000E0F014C6F000E136E000E9B
:1071CC00146E7A0E156E400E166E3250016E026AF7
:1071DC00036A046A010E97EC3BF001C00FF002C089
:1071EC0010F003C011F004C012F057EC3EF00FC0C9
:1071FC0028F010C029F011C02AF012C02BF01AECA4
:10720C003AF028500F014B6F4A697EA4FED77E944A
:10721C00000E0F014A6F120020EE80F010EE33F0DA
:10722C00190EDBCFE3FFE806FCE2000E516E330EC5
:10723C005124D96EDA6A000EDA22DF5035EC37F0C1
:10724C00512A180E5164F3D7000E4F6E000E506E7B
:10725C000F0E3DEC38F04F6E050EDFEC38F00F0ED4
:10726C003DEC38F0506E4F5035EC37F0505035EC5B
:10727C0037F04F50505C016E026AD8A00206AFEC9A
:10728C0037F002BEE5D7025005E1100E015CD8B014
:10729C001200DED71200036E03C001F00146014656
:1072AC00C2500118830B0118C26E1CD093840F01BD
:1072BC003985120093860F013987120093820F01D2
:1072CC003983120093800F0139811200938A0F01C8
:1072DC00398B120094860F013A87120093800F01AC
:1072EC00398112000350016E026A0250000AD8A4C0
:1072FC00F5D70150080AD8B4D9D7010AD8B4DAD7CF
:10730C00030AD8B4DBD7060AD8B4DCD7010AD8B440
:10731C00DDD7020AD8B4DED7E1D70A5768617420EA
:10732C00636F6C6F722073686F756C642073616E21
:10733C00696320726163653F0A000A53616E696379
:10734C0020776169747320666F72206120746F7589
:10735C0063680A000A53616E696320726163657326
:10736C0020005B005600E100DC00D70030303030EC
:10737C0031303030004552524F520A000C0A080985
:10738C000D0F0A536574000C08090A0D78AAAABEE1
:10739C00FA8CB9C3C3FF8CAAAFD2FF82A5AFBCFFD6
:1073AC00036E24D080808092809480968098120006
:1073BC008090808280948096809812008090809239
:1073CC008084809680981200809080928094808631
:1073DC008098120080908092809480968088120011
:1073EC00808080828084808680881200FA0E03243C
:1073FC00D96EDA6A000EDA22DF50016E026A025090
:10740C00000AD8A4EDD70150420AD8B4DDD7050A3A
:10741C00D8B4CED7150AD8B4D1D7050AD8B4C2D7A8
:10742C00390AD8B4D7D7DCD72A342B34316E315043
:10743C00D8A409D0000E286E000E296E000E2A6EFC
:10744C00000E2B6E120028C02CF029C02DF02AC083
:10745C002EF02BC02FF0200E05D0D8902F322E32CC
:10746C002D322C32E82EF9D72C50306E2A8EFF0E8E
:10747C002816FF0E2916FF0E2A16000E2B16960E36
:10748C00315E31AE0DD03150800A970FD8A0D2D7D3
:10749C00D8902B322A3229322832313EF9D70DD0EE
:1074AC001F0E316407D0C6D7D890283629362A3615
:1074BC002B3631063150D8A4F7D73050D8B408D079
:1074CC002B1E2A1E291E286C000E29222A222B2252
:1074DC0028C028F029C029F02AC02AF02BC02BF094
:1074EC001200A40E836E20EE9AF010EEE6F00D0E54
:1074FC00DBCFE3FFE806FCE2000E0001F86FE60EBE
:10750C00F825D96EDA6A000EDA22DF5035EC37F046
:10751C000001F82B0C0EF865F2D7B505D8A404D0F1
:10752C00420E35EC37F011D0B405D8A404D0520E6D
:10753C0035EC37F00AD0B305D8A404D0470E35EC9F
:10754C0037F003D06E0E35EC37F00A0E35EC37F011
:10755C00F29EF29C000E0001F76F0BD09EAA09D090
:10756C00F40EF725D96EDA6A000EDA22AECFDFFF01
:10757C00F72B020EF765F2D712D012EC39F027D0A8
:10758C0037EC3CF024D0E3EC37F021D060EC38F051
:10759C001ED0F9EC3CF01BD0C8EC37F018D0F451ED
:1075AC00526E536A5350000AD8A4F6D75250430A6D
:1075BC00D8B4EFD70D0AD8B4E6D71E0AD8B4E0D7A2
:1075CC00010AD8B4E3D7030AD8B4D7D7E5D7000E4D
:1075DC000001F96FF40EF925D96EDA6A000EDA2281
:1075EC00000EDF6EF92B020EF965F4D77AD720EE78
:1075FC00A8F010EE05F0090EDBCFE3FFE806FCE285
:10760C00000E0F6E0F50020D050EF324D96E000EF6
:10761C00F420DA6EDECF01F0DDCF02F001C0D9FF2D
:10762C0002C0DAFFD20E0F24E16EE26A000EE222F3
:10763C00DE50E65CD8B008D0FA0E0F24D96EDA6AA8
:10764C00000EDA22570E67D00F50020D050EF324F0
:10765C00D96E000EF420DA6E10EE01F0DE50E12649
:10766C00DD50E222D20E0F24D96EDA6A000EDA2235
:10767C00E650DE5CD8B008D0FA0E0F24D96EDA6A68
:10768C00000EDA22470E47D00F50020D050EF324E0
:10769C00D96E000EF420DA6E10EE02F0DE50E12608
:1076AC00DD50E222D20E0F24D96EDA6A000EDA22F5
:1076BC00E650DE5CD8B008D0FA0E0F24D96EDA6A28
:1076CC00000EDA22520E27D00F50020D050EF324B5
:1076DC00D96E000EF420DA6E10EE03F0DE50E126C7
:1076EC00DD50E222D20E0F24D96EDA6A000EDA22B5
:1076FC00E650DE5CD8B008D0FA0E0F24D96EDA6AE8
:10770C00000EDA22420E07D0FA0E0F24D96EDA6A76
:10771C00000EDA226E0EDF6E0F2A040E0F6472D783
:10772C001200096E0950D8A404AE1AD001C005F09D
:10773C0002C006F003C007F004C008F0051E061EC8
:10774C00071E081E052A000E06220722082205C065
:10775C000BF006C00CF007C00DF008C00EF008D0FE
:10776C0001C00BF002C00CF003C00DF004C00EF011
:10777C000150021003100410D8A409D0000E016EA1
:10778C00000E026E000E036E000E046E1200960EBA
:10779C000A6E06D00A2AD8900E320D320C320B32F9
:1077AC00000E0B14056E000E0C14066E000E0D145C
:1077BC00076EFE0E0E14086E05500610071008100A
:1077CC00D8B40DD0E7D70A2A010E0B26000E0C22D6
:1077DC000D220E22D8900E320D320C320B32000ECE
:1077EC000B14056E000E0C14066E000E0D14076EB5
:1077FC00FF0E0E14086E0550061007100810D8B4B2
:10780C0007D0E1D70A06D8900B360C360D360E365B
:10781C000DBE03D0020E0A60F5D70AA00D9ED890BB
:10782C000A320AC005F0066A076A086A05C008F041
:10783C00076A066A056A05500B1206500C120750AF
:10784C000D1208500E120950D8A404AE01D00E8EA1
:10785C000BC001F00CC002F00DC003F00EC004F020
:10786C001200F90E836E20EE60F010EE0CF01F0E7D
:10787C00DBCFE3FFE806FCE220EEC8F010EE2CF0C4
:10788C00040EDBCFE3FFE806FCE2000E316E0C0EBB
:10789C003124D96EDA6A000EDA22DF5035EC37F07B
:1078AC00312A1E0E3164F3D79EBA88D0FDD7000E54
:1078BC00326EB20E3224D96EDA6A000EDA22000E63
:1078CC00DF6E322A070E3264F4D7010E0001B56F59
:1078DC00000E336E2C0E3324D96EDA6A000EDA22C7
:1078EC00DF5035EC37F0332A030E3364F3D7120034
:1078FC00000E346EB20E3424D96EDA6A000EDA221F
:10790C00000EDF6E342A070E3464F4D7010E00012A
:10791C00B36F000E356E2C0E3524D96EDA6A000E5C
:10792C00DA22DF5035EC37F0352A030E3564F3D705
:10793C001200000E366EB20E3624D96EDA6A000EC4
:10794C00DA22000EDF6E362A070E3664F4D7010EEB
:10795C000001B46F000E376E2C0E3724D96EDA6A24
:10796C00000EDA22DF5035EC37F0372A030E37647D
:10797C00F3D71200000E386EB20E3824D96EDA6AC4
:10798C00000EDA22000EDF6E382A070E3864F4D7A8
:10799C00010E0001B66F000E396E2C0E3924D96E13
:1079AC00DA6A000EDA22DF5035EC37F0392A030E92
:1079BC003964F3D71200C8EC37F055D7AE500A6EC5
:1079CC000B6A0B50000AD8A4F6D70A50420AD8B456
:1079DC006ED7050AD8B48CD7150AD8B4AAD73C0AE6
:1079EC00D8B4C8D7E8D7000E806E20EECDF010EEDC
:1079FC0034F0040EDBCFE3FFE806FCE2C10E836E2D
:107A0C004AEC37F04AEC37F04AEC37F04AEC37F0F6
:107A1C004AEC37F04AEC37F0000E396E0C0E3DECA8
:107A2C0038F03E6E5B503E5CD8B03EC05BF00A0E48
:107A3C003DEC38F03E6E56503E5CD8B03EC056F031
:107A4C00080E3DEC38F03E6E5B503E5CD8B03EC04C
:107A5C00E1F0090E3DEC38F03E6E5B503E5CD8B068
:107A6C003EC0DCF00D0E3DEC38F03E6E5B503E5CE3
:107A7C00D8B03EC0D7F0392AF90E3964CFD7808000
:107A8C00820E836E4AEC37F04AEC37F04AEC37F052
:107A9C004AEC37F04AEC37F04AEC37F0000E3A6E0D
:107AAC000C0E3DEC38F03E6E5C503E5CD8B03EC0E7
:107ABC005CF00A0E3DEC38F03E6E57503E5CD8B090
:107ACC003EC057F0080E3DEC38F03E6E5C503E5C0C
:107ADC00D8B03EC0E2F0090E3DEC38F03E6E5C5082
:107AEC003E5CD8B03EC0DDF00D0E3DEC38F03E6E85
:107AFC005C503E5CD8B03EC0D8F03A2AF90E3A64DD
:107B0C00CFD78082880E836E4AEC37F04AEC37F080
:107B1C004AEC37F04AEC37F04AEC37F04AEC37F0E5
:107B2C00000E3B6E0C0E3DEC38F03E6E5D503E5C34
:107B3C00D8B03EC05DF00A0E3DEC38F03E6E5850A9
:107B4C003E5CD8B03EC058F0080E3DEC38F03E6EAE
:107B5C005D503E5CD8B03EC0E3F0090E3DEC38F011
:107B6C003E6E5D503E5CD8B03EC0DEF00D0E3DEC7E
:107B7C0038F03E6E5D503E5CD8B03EC0D9F03B2A2A
:107B8C00F90E3B64CFD78084800E836E4AEC37F0BD
:107B9C004AEC37F04AEC37F04AEC37F04AEC37F065
:107BAC004AEC37F0000E3C6E0C0E3DEC38F03E6E9D
:107BBC005E503E5CD8B03EC05EF00A0E3DEC38F034
:107BCC003E6E59503E5CD8B03EC059F0080E3DECAC
:107BDC0038F03E6E5E503E5CD8B03EC0E4F0090E0C
:107BEC003DEC38F03E6E5E503E5CD8B03EC0DFF0EF
:107BFC000D0E3DEC38F03E6E5E503E5CD8B03EC093
:107C0C00DAF03C2AF90E3C64CFD78086C80E836E1E
:107C1C004AEC37F04AEC37F04AEC37F04AEC37F0E4
:107C2C004AEC37F04AEC37F0000E3D6E0C0E3DEC92
:107C3C0038F03E6E5F503E5CD8B03EC05FF00A0E2E
:107C4C003DEC38F03E6E5A503E5CD8B03EC05AF017
:107C5C00080E3DEC38F03E6E5F503E5CD8B03EC036
:107C6C00E5F0090E3DEC38F03E6E5F503E5CD8B04E
:107C7C003EC0E0F00D0E3DEC38F03E6E5F503E5CC9
:107C8C00D8B03EC0DBF03D2AF90E3D64CFD78088DA
:107C9C004AEC37F04AEC37F04AEC37F0000E806EC5
:107CAC0012001250800B1B6E12501224216E11BE4A
:107CBC0021802150D8B40DD02128D8A408D0000E92
:107CCC000F6E000E106E000E116E000E126E118EE5
:107CDC0008D0000E0F6E000E106E000E116E000E0E
:107CEC00126E1650800B1B1A16501624206E15BEE1
:107CFC0020802050D8B40DD02028D8A408D0000E55
:107D0C00136E000E146E000E156E000E166E158E90
:107D1C0008D0000E136E000E146E000E156E000EC1
:107D2C00166E2050D8B403D02150D8A409D0000E20
:107D3C000F6E000E106E000E116E000E126E120001
:107D4C0015500F02F3CF26F0F4CF27F026501C6EFF
:107D5C001D6A1E6A1F6A2750226E236A246A256ACE
:107D6C0014501002F3CF26F0F4CF27F026501C2627
:107D7C00000E1D221E221F2227502226000E232217
:107D8C002422252213501102F3CF26F0F4CF27F032
:107D9C0026501C26000E1D221E221F222750222692
:107DAC00000E2322242225221EC01FF01DC01EF00F
:107DBC001CC01DF01C6A13501002F3CF26F0F4CF38
:107DCC0027F026501C2627501D22000E1E22000EC6
:107DDC001F2214500F02F3CF26F0F4CF27F02650B9
:107DEC001C2627501D22000E1E22000E1F221EC014
:107DFC001FF01DC01EF01CC01DF01C6A13500F029A
:107E0C00F3CF26F0F4CF27F026501C2627501D2246
:107E1C00000E1E22000E1F2215501002F3CF26F06A
:107E2C00F4CF27F02650222627502322000E24229E
:107E3C00000E252214501102F3CF26F0F4CF27F0B8
:107E4C002650222627502322000E2422000E252203
:107E5C0015501102F3CF26F0F4CF27F02650176EF1
:107E6C002750186E196A1A6A19C01AF018C019F03E
:107E7C0017C018F0176A17502226185023221950D1
:107E8C0024221A5025221CC017F01DC018F01EC049
:107E9C0019F01FC01AF0190E05D0D8901A321932E9
:107EAC0018321732E82EF9D71750222618502322F1
:107EBC00195024221A5025221EC01FF01DC01EF07E
:107ECC001CC01DF01C6A205021C017F0186A172620
:107EDC00000E1822820E1724266EFF0E1820276E15
:107EEC000FD0D89022362336243625361FBE22805A
:107EFC00D8901C361D361E361F362606D8A02706EF
:107F0C0024AEEFD7000E206E1FAE17D0FF0E1C1440
:107F1C00176EFF0E1D14186EFF0E1E14196E7F0EB9
:107F2C001F141A6E1750181019101A10D8B403D049
:107F3C00010E206E02D022B0FBD72050D8B41FD037
:107F4C00010E2226000E23222422252225A017D042
:107F5C0022C017F023C018F024C019F025C01AF065
:107F6C001A341A3219321832173217C022F018C0CC
:107F7C0023F019C024F01AC025F0264A272A27BE60
:107F8C000DD0275003E12628D8A008D0000E226E71
:107F9C00000E236E800E246E7F0E20D027BE05D0DF
:107FAC0027500EE12604D8B00BD0000E226E000E26
:107FBC00236E000E246E000E256E000E1B6E0FD06D
:107FCC0026C021F0FF0E2216FF0E23167F0E24165C
:107FDC00000E251621B0248ED8902130256E1B5012
:107FEC00251222C00FF023C010F024C011F025C0C0
:047FFC0012F012006D
:020000040020DA
:08000000FFFFFFFFFFFFFFFF00
:020000040030CA
:0E000000FF281F3CFFBF85FF0FC00FE00F4021
:00000001FF
