:020000040000FA
:0400000024EF3BF0BE
:1074CC00C282C2B2FED7C4501200D3508F0B5009E7
:1074DC00D36E120081EC3AF079EC3CF0FFD7016EE0
:1074EC009EA8FED701C0ADFF120082B2B4BCFF8CC7
:1074FC00A8B9B9FF4205010E0001916F6BEC3AF08F
:10750C0049EC3BF0AFEC3AF08DEC3AF01200C05085
:10751C00F80B0409C06E000EC16EC250830B30090B
:10752C00C26EC09EC050C70B2809C06EC28012002C
:10753C00000E0C6E0C0E01EC3BF00B6E55500B5C00
:10754C00D8B00BC055F00C2AF90E0C64F3D7808E12
:10755C0012009D9A9D989E9A000EEA6E000EE96E9E
:10756C00240EAC6E900EAB6E190EAF6E000EB06E9C
:10757C00B896948C948E000E826E000E0F013A6FAA
:10758C00120020EE97F010EE02F0060EDBCFE3FFB8
:10759C00E806FCE2000E096E020E0924D96EDA6AC6
:1075AC00000EDA22DF5075EC3AF0092A050E096458
:1075BC00F3D712008DEC3AF0090EA7EC3BF0000E5D
:1075CC00346E9E0E3424D96EDA6A000EDA22DF5045
:1075DC0001EC3BF075EC3AF0342A040E3464F1D72C
:1075EC000A0E75EC3AF09EAAE7D79E9A530EAE1887
:1075FC00D8B41200E1D7066E0650DAEC3BF0000E60
:10760C00086E000E076E000E0A6E66EC3AF0046E01
:10761C0004500726000E08220A2A030E0A64F5D726
:10762C0007C004F008C005F0D89005320432D89099
:10763C00053204320450096E09501200EC0EF66E3D
:10764C00760EF76E000EF86E00EE60F010EE62F043
:10765C000900F5CFEEFFE550E150FAE1F60EF66EBB
:10766C00740EF76E000EF86E00EE50F010EE0CF08B
:10767C000900F5CFEEFFE550E150FAE1000EF86E8F
:10768C00000170EF3AF0000E806E000E896E000E55
:10769C00926E000E0F01386F000E816E000E8A6E16
:1076AC00000E936E000E396F000E826E000E8B6E04
:1076BC00000E946E000E3A6F000E836E000E8C6EF0
:1076CC00000E956E000E3B6F000E846E000E8D6EDC
:1076DC00000E966E000E3C6F010E0001916F1200B1
:1076EC000A5768617420636F6C6F722073686F75D2
:1076FC006C642073616E696320726163653F0A007C
:10770C000A53616E696320726163657320003030C7
:10771C00303031303030004552524F520A000C0A92
:10772C0008090D0F0A536574000C08090A0DFFFFB8
:10773C00FFFFFF8CB9C3C3FF8CAAD2AFFF82A5AFEA
:10774C00BCFF326E000E0F014C6F000E136E000E5C
:10775C00146E7A0E156E400E166E3250016E026A61
:10776C00036A046A010EF5EC3CF001C00FF002C094
:10777C0010F003C011F004C012F057EC3EF00FC033
:10778C0028F010C029F011C02AF012C02BF01CEC0C
:10779C003CF028500F014B6F4A697EA4FED77E94B3
:1077AC00000E0F014A6F1200036E03C001F0014678
:1077BC000146C2500118830B0118C26E1CD0938471
:1077CC000F013985120093860F01398712009382BD
:1077DC000F013983120093800F0139811200938AB3
:1077EC000F01398B120094860F013A871200938097
:1077FC000F01398112000350016E026A0250000A17
:10780C00D8A4F5D70150080AD8B4D9D7010AD8B4EE
:10781C00DAD7030AD8B4DBD7060AD8B4DCD7010A06
:10782C00D8B4DDD7020AD8B4DED7E1D72A342B344A
:10783C00316E3150D8A409D0000E286E000E296E7E
:10784C00000E2A6E000E2B6E120028C02CF029C0E0
:10785C002DF02AC02EF02BC02FF0200E05D0D89082
:10786C002F322E322D322C32E82EF9D72C50306E8E
:10787C002A8EFF0E2816FF0E2916FF0E2A16000E52
:10788C002B16960E315E31AE0DD03150800A970F0B
:10789C00D8A0D2D7D8902B322A3229322832313E76
:1078AC00F9D70DD01F0E316407D0C6D7D890283623
:1078BC0029362A362B3631063150D8A4F7D730501A
:1078CC00D8B408D02B1E2A1E291E286C000E292283
:1078DC002A222B2228C028F029C029F02AC02AF0FD
:1078EC002BC02BF01200A40E836E20EE80F010EE55
:1078FC003CF00D0EDBCFE3FFE806FCE2000E4E6E13
:10790C003C0E4E24D96EDA6A000EDA22DF5075EC8A
:10791C003AF04E2A0C0E4E64F3D700019105D8A410
:10792C0004D0420E75EC3AF011D09005D8A404D0D6
:10793C00520E75EC3AF00AD08F05D8A404D0470E3D
:10794C0075EC3AF003D06E0E75EC3AF00A0E75EC4D
:10795C003AF0F29EF29C000E4D6E0BD09EAA09D00E
:10796C004A0E4D24D96EDA6A000EDA22AECFDFFF52
:10797C004D2A020E4D64F2D70CD095EC3DF020D080
:10798C00E0EC3AF01DD09EEC3AF01AD0C7EC3AF08D
:10799C0017D04A503A6E3B6A3B50000AD8A4F6D72F
:1079AC003A50430AD8B4EFD70D0AD8B409D01E0AFE
:1079BC00D8B4E3D7010AD8B4E3D7030AD8A4E6D7DE
:1079CC00000E4F6E4A0E4F24D96EDA6A000EDA2280
:1079DC00000EDF6E4F2A020E4F64F4D784D7096E67
:1079EC000950D8A404AE1AD001C005F002C006F0AC
:1079FC0003C007F004C008F0051E061E071E081E73
:107A0C00052A000E06220722082205C00BF006C02C
:107A1C000CF007C00DF008C00EF008D001C00BF040
:107A2C0002C00CF003C00DF004C00EF001500210A7
:107A3C0003100410D8A409D0000E016E000E026EC3
:107A4C00000E036E000E046E1200960E0A6E06D027
:107A5C000A2AD8900E320D320C320B32000E0B1457
:107A6C00056E000E0C14066E000E0D14076EFE0E45
:107A7C000E14086E0550061007100810D8B40DD05F
:107A8C00E7D70A2A010E0B26000E0C220D220E221D
:107A9C00D8900E320D320C320B32000E0B14056ED8
:107AAC00000E0C14066E000E0D14076EFF0E0E1455
:107ABC00086E0550061007100810D8B407D0E1D78F
:107ACC000A06D8900B360C360D360E360DBE03D08A
:107ADC00020E0A60F5D70AA00D9ED8900A320AC091
:107AEC0005F0066A076A086A05C008F0076A066AA4
:107AFC00056A05500B1206500C1207500D12085057
:107B0C000E120950D8A404AE01D00E8E0BC001F099
:107B1C000CC002F00DC003F00EC004F01200F90E00
:107B2C00836E20EE60F010EE0CF01F0EDBCFE3FF47
:107B3C00E806FCE220EEA4F010EE2CF0040EDBCFF5
:107B4C00E3FFE806FCE2000E316E0C0E3124D96E18
:107B5C00DA6A000EDA22DF5075EC3AF0312A1E0E8A
:107B6C003164F3D79EBA88D0FDD7000E326E8E0EDC
:107B7C003224D96EDA6A000EDA22000EDF6E322A57
:107B8C00070E3264F4D7010E0001916F000E336EB4
:107B9C002C0E3324D96EDA6A000EDA22DF5075EC23
:107BAC003AF0332A030E3364F3D71200000E346E0E
:107BBC008E0E3424D96EDA6A000EDA22000EDF6ED5
:107BCC00342A070E3464F4D7010E00018F6F000EB7
:107BDC00356E2C0E3524D96EDA6A000EDA22DF509F
:107BEC0075EC3AF0352A030E3564F3D71200000E0B
:107BFC00366E8E0E3624D96EDA6A000EDA22000E3C
:107C0C00DF6E362A070E3664F4D7010E0001906F32
:107C1C00000E376E2C0E3724D96EDA6A000EDA227B
:107C2C00DF5075EC3AF0372A030E3764F3D71200A5
:107C3C00000E386E8E0E3824D96EDA6A000EDA22F7
:107C4C00000EDF6E382A070E3864F4D7010E0001DF
:107C5C00926F000E396E2C0E3924D96EDA6A000E32
:107C6C00DA22DF5075EC3AF0392A030E3964F3D777
:107C7C001200C7EC3AF055D7AE500A6E0B6A0B5097
:107C8C00000AD8A4F6D70A50420AD8B46ED7050A0F
:107C9C00D8B48CD7150AD8B4AAD73C0AD8B4C8D74C
:107CAC00E8D71250800B1B6E12501224216E11BE9D
:107CBC0021802150D8B40DD02128D8A408D0000E92
:107CCC000F6E000E106E000E116E000E126E118EE5
:107CDC0008D0000E0F6E000E106E000E116E000E0E
:107CEC00126E1650800B1B1A16501624206E15BEE1
:107CFC0020802050D8B40DD02028D8A408D0000E55
:107D0C00136E000E146E000E156E000E166E158E90
:107D1C0008D0000E136E000E146E000E156E000EC1
:107D2C00166E2050D8B403D02150D8A409D0000E20
:107D3C000F6E000E106E000E116E000E126E120001
:107D4C0015500F02F3CF26F0F4CF27F026501C6EFF
:107D5C001D6A1E6A1F6A2750226E236A246A256ACE
:107D6C0014501002F3CF26F0F4CF27F026501C2627
:107D7C00000E1D221E221F2227502226000E232217
:107D8C002422252213501102F3CF26F0F4CF27F032
:107D9C0026501C26000E1D221E221F222750222692
:107DAC00000E2322242225221EC01FF01DC01EF00F
:107DBC001CC01DF01C6A13501002F3CF26F0F4CF38
:107DCC0027F026501C2627501D22000E1E22000EC6
:107DDC001F2214500F02F3CF26F0F4CF27F02650B9
:107DEC001C2627501D22000E1E22000E1F221EC014
:107DFC001FF01DC01EF01CC01DF01C6A13500F029A
:107E0C00F3CF26F0F4CF27F026501C2627501D2246
:107E1C00000E1E22000E1F2215501002F3CF26F06A
:107E2C00F4CF27F02650222627502322000E24229E
:107E3C00000E252214501102F3CF26F0F4CF27F0B8
:107E4C002650222627502322000E2422000E252203
:107E5C0015501102F3CF26F0F4CF27F02650176EF1
:107E6C002750186E196A1A6A19C01AF018C019F03E
:107E7C0017C018F0176A17502226185023221950D1
:107E8C0024221A5025221CC017F01DC018F01EC049
:107E9C0019F01FC01AF0190E05D0D8901A321932E9
:107EAC0018321732E82EF9D71750222618502322F1
:107EBC00195024221A5025221EC01FF01DC01EF07E
:107ECC001CC01DF01C6A205021C017F0186A172620
:107EDC00000E1822820E1724266EFF0E1820276E15
:107EEC000FD0D89022362336243625361FBE22805A
:107EFC00D8901C361D361E361F362606D8A02706EF
:107F0C0024AEEFD7000E206E1FAE17D0FF0E1C1440
:107F1C00176EFF0E1D14186EFF0E1E14196E7F0EB9
:107F2C001F141A6E1750181019101A10D8B403D049
:107F3C00010E206E02D022B0FBD72050D8B41FD037
:107F4C00010E2226000E23222422252225A017D042
:107F5C0022C017F023C018F024C019F025C01AF065
:107F6C001A341A3219321832173217C022F018C0CC
:107F7C0023F019C024F01AC025F0264A272A27BE60
:107F8C000DD0275003E12628D8A008D0000E226E71
:107F9C00000E236E800E246E7F0E20D027BE05D0DF
:107FAC0027500EE12604D8B00BD0000E226E000E26
:107FBC00236E000E246E000E256E000E1B6E0FD06D
:107FCC0026C021F0FF0E2216FF0E23167F0E24165C
:107FDC00000E251621B0248ED8902130256E1B5012
:107FEC00251222C00FF023C010F024C011F025C0C0
:047FFC0012F012006D
:020000040020DA
:08000000FFFFFFFFFFFFFFFF00
:020000040030CA
:0E000000FF281F3CFFBF85FF0FC00FE00F4021
:00000001FF
