:020000040000FA
:0400000081EF3AF062
:10716C00C282C2B2FED7C4501200D3508F0B50094A
:10717C00D36E1200F9EC38F09CEC3CF0FFD7016EAA
:10718C009EA8FED701C0ADFF120078AAAABEFA4293
:10719C00058CA8B9B9FFEDEC38F003D0808A808C4F
:1071AC00808E9EB01200FAD7829082929484849042
:1071BC0084929684000E806E1200000E026E3F0EBA
:1071CC0046EC39F0022A0E0E0264F9D71200320E88
:1071DC00CD6EF28CF28E9D809E90000ECF6E000EC6
:1071EC00CE6ECD801200010E0001C96FBBEC38F0E1
:1071FC00DAEC3AF089EC39F056EC39F01200809A5E
:10720C00809C808E8280829284908482140EBE6ECA
:10721C00640E0F01556F1200809A808C809E8290B4
:10722C00828284908482640EBE6E000E0F01556FB4
:10723C001200809A809C808E8290828284908482BC
:10724C00640EBE6EC80E0F01556F1200809A808CB2
:10725C00809E8290828284908482C80EBE6E640E60
:10726C000F01556F1200808A809C809E82908282D2
:10727C0084908482FA0EBE6EFA0E0F01556F1200C6
:10728C00016E000E0F014C6F0150040DF3CF4BFF3C
:10729C004A697EA4FED77E94000E0F014A6F12003D
:1072AC00C050F80B0409C06E000EC16EC250830BA7
:1072BC003009C26EC09EC050C70B2809C06EC28078
:1072CC001200000EBD6EBB68BE689494000E0F01D8
:1072DC00496F0C0EBD6E000EBA6E000EBC6E9D900A
:1072EC00BA841200000E0F01546F526955699694BE
:1072FC00040E486F0C0E546F000E516F000E536F3E
:10730C007D90518512009D9A9D989E9A000EEA6E72
:10731C00000EE96E240EAC6E900EAB6E190EAF6EB5
:10732C00000EB06EB896948C948E000E826E000E89
:10733C000F013A6F120002BE05D0025010E1010499
:10734C00D8B00DD001C003F002C004F0031E041E1F
:10735C00034A042A03C001F004C002F0120001C069
:10736C0001F002C002F0120020EECFF010EE02F09D
:10737C00060EDBCFE3FFE806FCE2000E096E020E00
:10738C000924D96EDA6A000EDA22DF50C5EC38F027
:10739C00092A050E0964F3D7000EAE6E1200000E1A
:1073AC000C6E000E0B6E500E0B24D96E000E0C20C2
:1073BC00DA6ED60E0B24E16E000E0C20E26EE75056
:1073CC0012EC3AF0DF6E0B4A0C2A0C5005E1050E5C
:1073DC000B5CD8B01200E7D712000001C651D8B42C
:1073EC0003D0BF0E836E1200C751D8B403D0820EE7
:1073FC00836E1200C851D8B403D0880E836E12006D
:10740C00C951D8B403D0800E836E1200CA51D8B4BF
:10741C001200C80E836E1200066E065040EC3BF054
:10742C00000E086E000E076E000E0A6EB6EC38F0F9
:10743C00046E04500726000E08220A2A030E0A6462
:10744C00F5D707C004F008C005F0D8900532043217
:10745C00D890053204320450096E09501200F3EC36
:10746C0039F067EC39F078EC39F056EC39F0D5ECB2
:10747C0039F01FEC3DF0020EC4EC3BF082EC3BF01B
:10748C009EAA0CD09E9A530EAE18D8B404D0730E8C
:10749C00AE18D8A4ECD7DAEC38F01200ADEC3AF018
:1074AC00AA0AD8B4F8D7E3D756EC39F00C0E836E91
:1074BC000A0E46EC39F0000E0C6ED60E0C24D96E6A
:1074CC00DA6A000EDA22DF5012EC3AF0C5EC38F032
:1074DC000C2A040E0C64F1D70A0EC5EC38F09EAAE7
:1074EC00E7D79E9A530EAE18D8B41200730EAE188E
:1074FC00D8B41200DDD79E0EF66E780EF76E000E25
:10750C00F86E00EE60F010EE9AF00900F5CFEEFF89
:10751C00E550E150FAE1960EF66E710EF76E000E24
:10752C00F86E00EE50F010EE0CF00900F5CFEEFF07
:10753C00E550E150FAE10001FE6BFD6BFC6BFB6B5F
:10754C00FA6B5C6A000EF86E0001C0EF38F05A500E
:10755C00505CD8A004D05950505CD8B002D0000E6A
:10756C0012000001F851515CD8A0F9D7F751515CC9
:10757C00D8A0F5D7F351525CD8A0F1D7F251525C98
:10758C00D8A0EDD7EE51535CD8A0E9D7ED51535CA0
:10759C00D8A0E5D7E951545CD8A0E1D7E851545CA8
:1075AC00D8A0DDD7AA0E1200000E806E000E896ED8
:1075BC00000E926E000E0F01386F000E816E000EE1
:1075CC008A6E000E936E000E396F000E826E000EE6
:1075DC008B6E000E946E000E3A6F000E836E000ED2
:1075EC008C6E000E956E000E3B6F000E846E000EBE
:1075FC008D6E000E966E000E3C6F010E0001C96F71
:10760C00120020EE80F010EE0BF0190EDBCFE3FF32
:10761C00E806FCE2000E296E0B0E2924D96EDA6AFC
:10762C00000EDA22DF50C5EC38F0292A180E296436
:10763C00F3D7000E276E000E286E0F0E12EC3AF0E8
:10764C00276E050E46EC39F00F0E12EC3AF0286E50
:10765C002750285C016E026AD8A00206A1EC39F012
:10766C0002BEEBD7025005E1330E015CD8B012001C
:10767C00E4D71200036E03C001F001460146C2506C
:10768C000118830B0118C26E1CD093840F0139852D
:10769C00120093860F013987120093820F013983F0
:1076AC00120093800F0139811200938A0F01398BDC
:1076BC00120094860F013A87120093800F013981D2
:1076CC0012000350016E026A0250000AD8A4F5D7CA
:1076DC000150080AD8B4D9D7010AD8B4DAD7030AAA
:1076EC00D8B4DBD7060AD8B4DCD7010AD8B4DDD7B6
:1076FC00020AD8B4DED7E1D75C50D8A418D0000168
:10770C00C651D8B402D0570E11D0C751D8B402D03C
:10771C00470E0CD0C851D8B402D0420E07D0C95174
:10772C00D8A4FBD7CA51D8B402D06E0E5C6E5C5094
:10773C000001FC19D8A403D039EC39F012005C50CC
:10774C00FB19D8A403D01FEC39F012005C50FD19C2
:10775C00D8A403D02CEC39F012005C50FA19D8A440
:10776C0003D005EC39F012005C50FE19D8A403D0FC
:10777C0012EC39F01200D1EC38F01200036E24D068
:10778C008080809280948096809812008090808275
:10779C00809480968098120080908092808480964D
:1077AC00809812008090809280948086809812003D
:1077BC008090809280948096808812008080808255
:1077CC008084808680881200FA0E0324D96EDA6ACF
:1077DC00000EDA22DF50016E026A0250000AD8A4B1
:1077EC00EDD70150420AD8B4DDD7050AD8B4CED7AC
:1077FC00150AD8B4D1D7050AD8B4C2D7390AD8B427
:10780C00D7D7DCD720EEA8F010EE04F0090EDBCFB2
:10781C00E3FFE806FCE20A0E5726050E58260A0E70
:10782C0059260A0E0001F5270A0EF6270A0EF7272D
:10783C000A0EF0270A0EF1270A0EEB270A0EEC2788
:10784C000A0EE6270A0EE727000E0E6E000E0F6ECC
:10785C000E50020D040EF324D96E000EF420DA6ED5
:10786C00DECF02F0DDCF03F00F500224D96E000EF4
:10787C000320DA6EDF50C5EC38F00F2A040E0F64CB
:10788C00E7D70A0EC5EC38F00E2A040E0E64DED7CC
:10789C0012000A5768617420636F6C6F72207368F2
:1078AC006F756C642073616E696320726163653FF0
:1078BC000A000A53616E69632077616974732066EC
:1078CC006F72206120746F7563680A000A53616ED1
:1078DC00696320726163657320005700F500F00046
:1078EC00EB00E6005700F500F000EB00E600570057
:1078FC00F500F000EB00E600303030303130303045
:10790C00004552524F520A000C0A08090D0F0A5337
:10791C006574000C08090A0D8CB9C3C3FF8CAAAF9F
:10792C00D2FF82A5AFBCFF82B2B4BCFFA40E836EA3
:10793C0020EE9AF010EE3CF00D0EDBCFE3FFE806E4
:10794C00FCE2000E4E6E3C0E4E24D96EDA6A000E2E
:10795C00DA22DF50C5EC38F04E2A0C0E4E64F3D709
:10796C000001C905D8A404D0420EC5EC38F011D0E2
:10797C00C805D8A404D0520EC5EC38F00AD0C705FF
:10798C00D8A404D0470EC5EC38F003D06E0EC5EC6D
:10799C0038F00A0EC5EC38F0F29EF29C000E4D6EDB
:1079AC000BD09EAA09D04A0E4D24D96EDA6A000E6D
:1079BC00DA22AECFDFFF4D2A020E4D64F2D712D081
:1079CC0007EC3BF027D0AFEC3DF024D035EC3AF08F
:1079DC0021D05AEC3AF01ED071EC3EF01BD0BAEC30
:1079EC0039F018D04A503A6E3B6A3B50000AD8A482
:1079FC00F6D73A50430AD8B4EFD70D0AD8B4E6D725
:107A0C001E0AD8B4E0D7010AD8B4E3D7030AD8B415
:107A1C00D7D7E5D7000E4F6E4A0E4F24D96EDA6ACF
:107A2C00000EDA22000EDF6E4F2A020E4F64F4D7DE
:107A3C007DD720EEB2F010EE03F0090EDBCFE3FFA2
:107A4C00E806FCE2000E0D6E0D50020D030EF32441
:107A5C00D96E000EF420DA6E10EE01F0DE50E12645
:107A6C00DD50E222500E0D24D96EDA6A000EDA22B5
:107A7C00E650DE5CD8B008D0FA0E0D24D96EDA6A66
:107A8C00000EDA22570E5FD00D50020D030EF324B8
:107A9C00D96E000EF420DA6E10EE02F0DE50E12604
:107AAC00DD50E222500E0D24D96EDA6A000EDA2275
:107ABC00E650DE5CD8A018D00D50020D030EF32456
:107ACC00D96E000EF420DA6E10EE03F0DE50E126D3
:107ADC00DD50E222500E0D24D96EDA6A000EDA2245
:107AEC00E650DE5CD8B008D0FA0E0D24D96EDA6AF6
:107AFC00000EDA22470E27D00D50020D030EF32490
:107B0C00D96E000EF420DA6E10EE04F0DE50E12691
:107B1C00DD50E222500E0D24D96EDA6A000EDA2204
:107B2C00E650DE5CD8B008D0FA0E0D24D96EDA6AB5
:107B3C00000EDA22420E07D0FA0E0D24D96EDA6A44
:107B4C00000EDA226E0EDF6E0D2A040E0D647CD749
:107B5C001200F90E836E20EE60F010EE0CF01F0E8A
:107B6C00DBCFE3FFE806FCE220EEDCF010EE2CF0BD
:107B7C00040EDBCFE3FFE806FCE2000E316E0C0EC8
:107B8C003124D96EDA6A000EDA22DF50C5EC38F0F7
:107B9C00312A1E0E3164F3D79EBA88D0FDD7000E61
:107BAC00326EC60E3224D96EDA6A000EDA22000E5C
:107BBC00DF6E322A070E3264F4D7010E0001C96F52
:107BCC00000E336E2C0E3324D96EDA6A000EDA22D4
:107BDC00DF50C5EC38F0332A030E3364F3D71200B0
:107BEC00000E346EC60E3424D96EDA6A000EDA2218
:107BFC00000EDF6E342A070E3464F4D7010E000138
:107C0C00C76F000E356E2C0E3524D96EDA6A000E55
:107C1C00DA22DF50C5EC38F0352A030E3564F3D781
:107C2C001200000E366EC60E3624D96EDA6A000EBD
:107C3C00DA22000EDF6E362A070E3664F4D7010EF8
:107C4C000001C86F000E376E2C0E3724D96EDA6A1D
:107C5C00000EDA22DF50C5EC38F0372A030E3764F9
:107C6C00F3D71200000E386EC60E3824D96EDA6ABD
:107C7C00000EDA22000EDF6E382A070E3864F4D7B5
:107C8C00010E0001CA6F000E396E2C0E3924D96E0C
:107C9C00DA6A000EDA22DF50C5EC38F0392A030E0E
:107CAC003964F3D71200BAEC39F055D7AE500A6EDE
:107CBC000B6A0B50000AD8A4F6D70A50420AD8B463
:107CCC006ED7050AD8B48CD7150AD8B4AAD73C0AF3
:107CDC00D8B4C8D7E8D720EEBCF010EE17F0090ED8
:107CEC00DBCFE3FFE806FCE2000E266E000E276EEB
:107CFC002650020D170EF324D96E000EF420DA6E06
:107D0C00DECF10F0DDCF11F027501024D96E000E0D
:107D1C001120DA6E000EDF6E272A040E2764E8D7D6
:107D2C00262A040E2664E2D7000E806E20EEE1F0C7
:107D3C0010EE12F0040EDBCFE3FFE806FCE2C10EFE
:107D4C00836EE3EC38F0E3EC38F0000E216E0C0E91
:107D5C0012EC3AF0286E5750285CD8B028C057F077
:107D6C000A0E12EC3AF0286E0001F551285CD8B0DE
:107D7C0028C0F5F0080E12EC3AF0286E0001F05114
:107D8C00285CD8B028C0F0F0090E12EC3AF0286E3E
:107D9C000001EB51285CD8B028C0EBF00D0E12ECB2
:107DAC003AF0286E0001E651285CD8B028C0E6F005
:107DBC00212AF90E2164CBD78080820E836EE3ECEE
:107DCC0038F0E3EC38F0E3EC38F0E3EC38F0E3ECCB
:107DDC0038F0E3EC38F0000E226E0C0E12EC3AF098
:107DEC00286E5850285CD8B028C058F00A0E12ECF7
:107DFC003AF0286E0001F651285CD8B028C0F6F095
:107E0C00080E12EC3AF0286E0001F151285CD8B043
:107E1C0028C0F1F0090E12EC3AF0286E0001EC517A
:107E2C00285CD8B028C0ECF00D0E12EC3AF0286E9D
:107E3C000001E751285CD8B028C0E7F0222AF90EDF
:107E4C002264CBD78082880E836EE3EC38F0E3ECAF
:107E5C0038F0E3EC38F0E3EC38F0E3EC38F0E3EC3A
:107E6C0038F0000E236E0C0E12EC3AF0286E5950BE
:107E7C00285CD8B028C059F00A0E12EC3AF0286EE3
:107E8C000001F751285CD8B028C0F7F0080E12ECAE
:107E9C003AF0286E0001F251285CD8B028C0F2F0FC
:107EAC00090E12EC3AF0286E0001ED51285CD8B0A6
:107EBC0028C0EDF00D0E12EC3AF0286E0001E851DE
:107ECC00285CD8B028C0E8F0232AF90E2364CBD75D
:107EDC008084800E836EE3EC38F0E3EC38F0E3EC56
:107EEC0038F0E3EC38F0E3EC38F0E3EC38F0000E6B
:107EFC00246E0C0E12EC3AF0286E5A50285CD8B056
:107F0C0028C05AF00A0E12EC3AF0286E0001F85113
:107F1C00285CD8B028C0F8F0080E12EC3AF0286EA5
:107F2C000001F351285CD8B028C0F3F0090E12EC14
:107F3C003AF0286E0001EE51285CD8B028C0EEF063
:107F4C000D0E12EC3AF0286E0001E951285CD8B005
:107F5C0028C0E9F0242AF90E2464CBD78086C80EF9
:107F6C00836EE3EC38F0E3EC38F0E3EC38F0E3EC60
:107F7C0038F0E3EC38F0E3EC38F0000E256E0C0E24
:107F8C0012EC3AF0286E5B50285CD8B028C05BF03D
:107F9C000A0E12EC3AF0286E0001F951285CD8B0A8
:107FAC0028C0F9F0080E12EC3AF0286E0001F451DA
:107FBC00285CD8B028C0F4F0090E12EC3AF0286E08
:107FCC000001EF51285CD8B028C0EFF00D0E12EC78
:107FDC003AF0286E0001EA51285CD8B028C0EAF0CB
:107FEC00252AF90E2564CBD7808808EC3CF0000ECE
:047FFC00806E120081
:020000040020DA
:08000000FFFFFFFFFFFFFFFF00
:020000040030CA
:0E000000FF281F3CFFBF85FF0FC00FE00F4021
:00000001FF
