:020000040000FA
:0400000047EF3AF09C
:106EF400C282C2B2FED7C4501200A69EA69CA6802F
:106F0400A8501200D3508F0B5009D36E120010EC0E
:106F140038F039EC3DF0FFD7016E9EA8FED701C0D2
:106F2400ADFF1200808A808C808EDBEC37F012007B
:106F350078AAAABEFA4242058CAAAFD2FF829082F5
:106F4500929484849084929684000E806E12000040
:106F55000E026E3F0E1EEC38F0022A590E0264F93D
:106F6500D71200809A809C808E8290828284808451
:106F750092320EBE6E960E0F01556F1200809A80EA
:106F85008C809E8280829284908482960EBE6E3220
:106F95000E0F01556F1200809A809C808E82908220
:106FA5008284908482780EBE6EB40E0F01556F12E6
:106FB50000809A808C809E8290828284908482B4A4
:106FC5000EBE6E780E0F01556F1200808A809C8070
:106FD5009E8290828284908482FA0EBE6EFA0E0F93
:106FE50001556F1200808A809C809E8280829284E7
:106FF500808492FA0EBE6EFA0E0F01556F1200A62E
:107005009EA69CA684F29E550EA76EAA0EA76EA6F6
:1070150082F28EA1A8FED7A1981200010E0001BD33
:107025006F84EC37F07EEC39F071EC38F03EEC38DB
:10703500F0ABEC39F01200016E000E0F014C6F0140
:1070450050040DF3CF4BFF4A697EA4FED77E940012
:107055000E0F014A6F12000A5768617420636F6C46
:107065006F722073686F756C642073616E6963203D
:10707500726163653F0A00C050F80B0409C06E00D9
:107085000EC16EC250830B3009C26EC09EC050C780
:107095000B2809C06EC2801200000EBD6EBB68BE13
:1070A500689494000E0F01496F0C0EBD6E000EBA68
:1070B5006E000EBC6E9D90BA841200000E0F015436
:1070C5006F526955699694040E486F0C0E546F0003
:1070D5000E516F000E536F7D90518512009D9A9D44
:1070E500989E9A000EEA6E000EE96E240EAC6E9024
:1070F5000EAB6E190EAF6E000EB06EB896948C94F2
:107105008E000E826E000E0F013A6F120002BE0550
:10711500D0025010E10104D8B00DD001C003F00237
:10712500C004F0031E041E034A042A03C001F00430
:10713500C002F0120001C001F002C002F0120020EE
:10714500EEC3F010EE02F0060EDBCFE3FFE806FC1F
:10715500E2000E096E020E0924D96EDA6A000EDA13
:1071650022DF508EEC37F0092A050E0964F3D700AB
:107175000EAE6E12000001BA51D8B403D0BF0E8313
:107185006E1200BB51D8B403D0820E836E1200BCC0
:1071950051D8B403D0880E836E1200BD51D8B40304
:1071A500D0800E836E1200BE51D8B41200C80E8373
:1071B5006E1200066E065083EC3AF0000E086E0063
:1071C5000E076E000E0A6E7AEC37F0046E04500757
:1071D50026000E08220A2A070E0A64F5D707C004FE
:1071E500F008C005F0D89005320432D89005320475
:1071F50032D890053204320450096E095012003E0F
:10720500EC38F00C0E836E0A0E1EEC38F0DEEC3B0B
:10721500F0000E146E500E1424D96EDA6A000EDAE0
:1072250022DF508EEC37F0142A040E1464F3D70ACB
:107235000E8EEC37F09EAAE7D79E9A530EAE18D85D
:10724500B41200730EAE18D8B41200DDD7BDEC38F9
:10725500F04FEC38F060EC38F03EEC38F0DEEC3B0B
:10726500F0BFEC3CF0020E07EC3BF090EC3BF0324B
:107275000E1EEC38F09EAA0CD09E9A530EAE18D86E
:10728500B404D0730EAE18D8A4E9D7A1EC37F01228
:107295000051EC39F0AA0AD8B4F8D7E0D70001E7D5
:1072A50051505CD8A004D0E651505CD8B002D00053
:1072B5000E1200E251515CD8A0FAD7E151515CD8C9
:1072C500A0F6D7DD51525CD8A0F2D7DC51525CD87C
:1072D500A0EED75B50535CD8A0EAD75A50535CD880
:1072E500A0E6D7D851545CD8A0E2D7D751545CD882
:1072F500A0DED7AA0E1200000E806E000E896E0069
:107305000E926E000E0F01386F000E816E000E8A10
:107315006E000E936E000E396F000E826E000E8B9E
:107325006E000E946E000E3A6F000E836E000E8C8A
:107335006E000E956E000E3B6F000E846E000E8D76
:107345006E000E966E000E3C6F010E0001BD6F12B1
:107355000020EE88F010EE03F0090EDBCFE3FFE826
:1073650006FCE2000E0D6EA680000E0E6E000E0FDE
:107375006E0DC0A9FF0D2A0E50020D030EF324D980
:107385006E000EF420DA6EDECF01F0DDCF02F00FD5
:10739500500124D96E000E0220DA6E7FEC37F0DF43
:1073A5006E0F2A040E0F64E4D70E2A040E0E64DE57
:1073B500D7120020EE92F010EE03F0090EDBCFE3BA
:1073C500FFE806FCE2000E0D6E000E0E6E000E0FBD
:1073D5006E0DC0A9FF0D2A0E50020D030EF324D920
:1073E5006E000EF420DA6EDECF01F0DDCF02F00F75
:1073F500500124D96E000E0220DA6EDF50A86E020D
:10740500EC38F00F2A040E0F64E3D70E2A040E0E93
:1074150064DDD7A694120020EE60F010EE0BF01993
:107425000EDBCFE3FFE806FCE2000E296E0B0E290A
:1074350024D96EDA6A000EDA22DF508EEC37F02995
:107445002A180E2964F3D7000E276E000E286E0F3A
:107455000EDCEC38F0276E050E1EEC38F00F0EDC56
:10746500EC38F0286E2750285C016E026AD8A0021D
:107475000689EC38F002BEEBD7025005E1330E0168
:107485005CD8B01200E4D712005C0EF66E700EF7F1
:107495006E000EF86E01EE00F010EE20F00900F51A
:1074A500CFEEFFE550E150FAE1970EF66E760EF756
:1074B5006E000EF86E00EE60F010EE89F00900F532
:1074C500CFEEFFE550E150FAE1350EF66E6F0EF79F
:1074D5006E000EF86E00EE50F010EE0DF00900F59E
:1074E500CFEEFFE550E150FAE10001ED6BEC6BEBFF
:1074F5006BEA6BE96B5D6A000EF86E000189EF3788
:10750500F0036E03C001F001460146C25001188325
:107515000B0118C26E1CD093840F0139851200939C
:10752500860F013987120093820F01398312009368
:10753500800F0139811200938A0F01398B12009453
:10754500860F013A87120093800F013981120003DB
:1075550050016E026A0250000AD8A4F5D7015008FE
:107565000AD8B4D9D7010AD8B4DAD7030AD8B4DB14
:10757500D7060AD8B4DCD7010AD8B4DDD7020AD8B1
:10758500B4DED7E1D7000E066E04AE06D0036C0458
:107595001ED8B0042A010E066E02AE06D0016C029A
:1075A5001ED8B0022A010E061A000E086E000E073C
:1075B5006E03500410D8B41CD0010E056E04D0D84B
:1075C5009003360436052A04AEFAD7D89007360854
:1075D500360350015C04500258D8A005D003500171
:1075E5005E0450025A0780D89004320332052EED0E
:1075F500D70650D8B404D0076C081ED8B0082A079F
:10760500C001F008C002F01200036E24D080808013
:1076150092809480968098120080908082809480D9
:10762500968098120080908092808480968098122F
:10763500008090809280948086809812008090804F
:1076450092809480968088120080808082808480D9
:107655008680881200E90E0324D96EDA6A000EDAF4
:1076650022DF50016E026A0250000AD8A4EDD7014C
:1076750050420AD8B4DDD7050AD8B4CED7150AD8F2
:10768500B4D1D7050AD8B4C2D7390AD8B4D7D7DC0C
:01769500D71D
:107697000A53616E696320776169747320666F723C
:1076A700206120746F7563680A000A53616E69630D
:1076B7002072616365732000E400DF00DA00580080
:1076C700D500E400DF00DA005800D500E400DF0051
:1076D700DA005800D500E400DF00DA005800D500D2
:1076E700E400DF00DA005800D500303030303130A8
:1076F7003030004552524F520A000C0A08090D0F4C
:107707000A536574008CB9C3C3FF82A5AFBCFF825F
:10771700B2B4BCFF8CA8B9B9FF5D50D8A418D0008B
:1077270001BA51D8B402D0570E11D0BB51D8B40208
:10773700D0470E0CD0BC51D8B402D0420E07D0BDF2
:1077470051D8A4FBD7BE51D8B402D06E0E5D6E558A
:10775700500001EB19D8A403D0E8EC37F01200551C
:1077670050EA19D8A403D0CEEC37F012005550ECEC
:1077770019D8A403D0DBEC37F012005550E919D81B
:10778700A403D0B4EC37F012005550ED19D8A40378
:10779700D0C1EC37F012005350585CD8B003D0DB9F
:1077A700EC37F005D05450D55DD8A0C1EC37F09434
:1077B700EC37F01200000E126E0D0E1224D96EDA9D
:1077C7006A000EDA22CA0E1224E16EE26A000EE2A5
:1077D70022E750DCEC38F0DF6E122A040E1264EC5C
:1077E700D7000E126E500E1224D96EDA6A000EDA26
:1077F70022CA0E1224E16EE26A000EE222E750DC92
:10780700EC38F0DF6E0D0E1224D96EDA6A000EDA4C
:1078170022DF500B6E500E1224D96EDA6A000EDA90
:1078270022DF500C6E0C500B5C016E026AD8A0026E
:107837000689EC38F002BE24D0025004E11F0E0185
:107847005CD8A01ED0500E1224D96EDA6A000EDA68
:10785700220D0E1224E16EE26A000EE222DE50E6ED
:107867005CD8B00ED00D0E1224D96EDA6A000EDA8B
:1078770022500E1224E16EE26A000EE222DFCFE709
:10788700FF122A040E1264AED7120020EE9CF010ED
:10789700EE12F0090EDBCFE3FFE806FCE2000E1D57
:1078A7006E1D50020D120EF324D96E000EF420DA6D
:1078B7006E10EE01F0DE50E126DD50E2221D50028F
:1078C7000D120EF324D96E000EF420DA6E00EE02CC
:1078D700F0DE50E926DD50EA22EF50106E1D50020F
:1078E7000D120EF324D96E000EF420DA6E00EE01AD
:1078F700F0DE50E926DD50EA22EF50116E115010EC
:1079070024016E026A0236000E046E020E036EC573
:10791700EC3AF00150E76E000E1C6E1D50020D127E
:107927000EF324D96E000EF420DA6EDECF10F0DDF0
:10793700CF11F01C501024D96E000E1120DA6EDF23
:10794700508EEC37F01C2A040E1C64E7D70A0E8E03
:10795700EC37F01D2A040E1D64A3D70A0E0001E4BC
:10796700270A0EDF270A0EDA270A0E58260A0ED52F
:1079770027DCEC39F0120020EEA6F010EE05F00936
:107987000EDBCFE3FFE806FCE2000E0F6E0F50029E
:107997000D050EF324D96E000EF420DA6EDECF014A
:1079A700F0DDCF02F001C0D9FF02C0DAFF500E0FA1
:1079B70024E16EE26A000EE222DE50E65CD8B008EF
:1079C700D0E90E0F24D96EDA6A000EDA22570E4775
:1079D700D00F50020D050EF324D96E000EF420DAF5
:1079E7006E10EE01F0DE50E126DD50E222500E0F60
:1079F70024D96EDA6A000EDA22E650DE5CD8B008C7
:107A0700D0E90E0F24D96EDA6A000EDA22470E2764
:107A1700D00F50020D050EF324D96E000EF420DAB4
:107A27006E10EE04F0DE50E126DD50E222500E0F1C
:107A370024D96EDA6A000EDA22E650DE5CD8B00886
:107A4700D0E90E0F24D96EDA6A000EDA22420E0749
:107A5700D0E90E0F24D96EDA6A000EDA226E0EDF35
:107A67006E0F2A040E0F6492D71200A40E836E20A5
:107A7700EE7AF010EE3CF00D0EDBCFE3FFE806FCEC
:107A8700E2000E4E6E3C0E4E24D96EDA6A000EDA14
:107A970022DF508EEC37F04E2A0C0E4E64F3D700DF
:107AA70001BD05D8A404D0420E8EEC37F011D0BC2E
:107AB70005D8A404D0520E8EEC37F00AD0BB05D8F7
:107AC700A404D0470E8EEC37F003D06E0E8EEC3741
:107AD700F00A0E8EEC37F0F29EF29C000E4D6E0B04
:107AE700D09EAA09D04A0E4D24D96EDA6A000EDA62
:107AF70022AECFDFFF4D2A020E4D64F2D72ED043C0
:107B07000E4B18D8A403D00EEC3AF03FD0450E4BDD
:107B170018D8A43BD060EC38F04FEC38F0F5EC37D0
:107B2700F09EAA33D09E9A530EAE18D8B404D073E1
:107B37000EAE18D8A42AD0A1EC37F027D0D8EC3D48
:107B4700F024D029EC39F021D002EC39F01ED0A274
:107B5700EC3EF01BD0A2EC38F018D04A503A6E3BFE
:107B67006A3B50000AD8A4F6D73A50430AD8B4EF74
:107B7700D70D0AD8B4E6D71E0AD8B4E0D7010AD879
:107B8700B4E3D7030AD8B4BBD7E5D7000E4F6E4A84
:107B97000E4F24D96EDA6A000EDA22000EDF6E4F1E
:107BA7002A020E4F64F4D761D7F90E836E21EE00D7
:107BB700F010EE0CF01F0EDBCFE3FFE806FCE2202F
:107BC700EED0F010EE2CF0040EDBCFE3FFE806FC5E
:107BD700E2000E316E0C0E3124D96EDA6A000EDA2D
:107BE70022DF508EEC37F0312A1E0E3164F3D79E18
:107BF700BA90D0FDD7000E326EBA0E3224D96EDAA3
:107C07006A000EDA22000EDF6E322A070E3264F4A3
:107C1700D7010E0001BD6F000E336E2C0E3324D931
:107C27006EDA6A000EDA22DF508EEC37F0332A0361
:107C37000E3364F3D7420E556E1200000E346EBA3F
:107C47000E3424D96EDA6A000EDA22000EDF6E34A3
:107C57002A070E3464F4D7010E0001BB6F000E35FE
:107C67006E2C0E3524D96EDA6A000EDA22DF508EBA
:107C7700EC37F0352A030E3564F3D7470E556E12ED
:107C870000000E366EBA0E3624D96EDA6A000EDAA6
:107C970022000EDF6E362A070E3664F4D7010E0077
:107CA70001BC6F000E376E2C0E3724D96EDA6A00CE
:107CB7000EDA22DF508EEC37F0372A030E3764F3E3
:107CC700D7520E556E1200000E386EBA0E3824D9F0
:107CD7006EDA6A000EDA22000EDF6E382A070E38D7
:107CE70064F4D7010E0001BE6F000E396E2C0E39F9
:107CF70024D96EDA6A000EDA22DF508EEC37F039BB
:107D07002A030E3964F3D76E0E556E1200A2EC38B3
:107D1700F04DD7AE500A6E0B6A0B50000AD8A4F686
:107D2700D70A50420AD8B466D7050AD8B486D715F9
:107D37000AD8B4A6D73C0AD8B4C6D7E8D749EC3C8A
:107D4700F020EEB0F010EE20F0090EDBCFE3FFE8F5
:107D570006FCE2000E2F6E000E306E2F50020D2033
:107D67000EF324D96E000EF420DA6EDECF1EF0DD9E
:107D7700CF1FF030501E24D96E000E1F20DA6E0080
:107D87000EDF6E302A040E3064E8D72F2A040E2F38
:107D970064E2D7000E806EC10E836EAAEC37F00046
:107DA7000E2A6E0C0EDCEC38F0316E0001E4513116
:107DB7005CD8B031C0E4F00A0EDCEC38F0316E006C
:107DC70001DF51315CD8B031C0DFF0080EDCEC3890
:107DD700F0316E0001DA51315CD8B031C0DAF00908
:107DE7000EDCEC38F0316E5850315CD8B031C058E9
:107DF700F00D0EDCEC38F0316E0001D551315CD856
:107E0700B031C0D5F02A2AF90E2A64CBD7808082F8
:107E17000E836EAAEC37F0000E2B6E0C0EDCEC38DE
:107E2700F0316E0001E551315CD8B031C0E5F00AA0
:107E37000EDCEC38F0316E0001E051315CD8B03126
:107E4700C0E0F0080EDCEC38F0316E0001DB513198
:107E57005CD8B031C0DBF0090EDCEC38F0316E597C
:107E670050315CD8B031C059F00D0EDCEC38F03130
:107E77006E0001D651315CD8B031C0D6F02B2AF94B
:107E87000E2B64CBD78082880E836EAAEC37F00066
:107E97000E2C6E0C0EDCEC38F0316E0001E6513121
:107EA7005CD8B031C0E6F00A0EDCEC38F0316E0079
:107EB70001E151315CD8B031C0E1F0080EDCEC389B
:107EC700F0316E0001DC51315CD8B031C0DCF00913
:107ED7000EDCEC38F0316E5A50315CD8B031C05AF4
:107EE700F00D0EDCEC38F0316E0001D751315CD863
:107EF700B031C0D7F02C2AF90E2C64CBD780848000
:107F07000E836EAAEC37F0000E2D6E0C0EDCEC38EB
:107F1700F0316E0001E751315CD8B031C0E7F00AAB
:107F27000EDCEC38F0316E0001E251315CD8B03133
:107F3700C0E2F0080EDCEC38F0316E0001DD5131A3
:107F47005CD8B031C0DDF0090EDCEC38F0316E5B87
:107F570050315CD8B031C05BF00D0EDCEC38F0313D
:107F67006E0001D851315CD8B031C0D8F02D2AF954
:107F77000E2D64CBD78086C80E836EAAEC37F0002F
:107F87000E2E6E0C0EDCEC38F0316E0001E851312C
:107F97005CD8B031C0E8F00A0EDCEC38F0316E0086
:107FA70001E351315CD8B031C0E3F0080EDCEC38A6
:107FB700F0316E0001DE51315CD8B031C0DEF0091E
:107FC7000EDCEC38F0316E5C50315CD8B031C05CFF
:107FD700F00D0EDCEC38F0316E0001D951315CD870
:107FE700B031C0D9F02E2AF90E2E64CBD78088493C
:097FF700EC3CF0000E806E12005B
:020000040020DA
:08000000FFFFFFFFFFFFFFFF00
:020000040030CA
:0E000000FF281F3CFFBF85FF0FC00FE00F4021
:00000001FF
