:020000040000FA
:0400000019EF3FF0C5
:107DB200C282C2B2FED7C4501200D3508F0B5009F8
:107DC200D36E1200DEEC3EF092EC3FF02EEC3FF070
:107DD2001200E3EC3EF0F3EC3EF00C0E46EC3FF00A
:107DE200806EFBD7C050F80B0409C06E000EC16E46
:107DF200C250830B3009C26EC09EC050C70B280907
:067E0200C06EC2801200F8
:107E0900303030303030303000FFFFFFFFFF8CB9A9
:107E1900C3C3FF8CAAD2AFFF82A5AFBCFF82B2B4A5
:107E2900BCFF8CA8B9B9FF4205090EF66E7E0EF7A4
:107E39006E000EF86E00EE01F010EE29F00900F563
:107E4900CFEEFFE550E150FAE1000EF86E0001EACD
:107E5900EF3EF09D9A9D989E9A000EEA6E000EE9FB
:107E69006E240EAC6E900EAB6E190EAF6E000EB096
:107E79006EB896948C948E000E826E000E0F013AA5
:107E89006F1200326E3250BEEC3FF0000E346E00BD
:107E99000E336E000E366ED9EC3EF0316E31503332
:107EA90026000E3422362A090E3664F5D733C02A45
:107EB900F034C02BF0000E2D6E0A0E2C6E69EC3FCB
:107EC900F02A50356E35501200000E2F6E000E2E1E
:107ED9006E2C502D10D8B41CD0010E306E04D0D8A1
:107EE900902C362D36302A2DAEFAD7D8902E362F33
:107EF900362C502A5C2D502B58D8A005D02C502A4E
:107F09005E2D502B5A2E80D8902D322C32302EEDEA
:107F1900D72EC02AF02FC02BF01200000E806E0061
:107F29000E896E000E926E000E0F01386F000E81E1
:107F39006E000E8A6E000E936E000E396F000E826F
:107F49006E000E8B6E000E946E000E3A6F000E835B
:107F59006E000E8C6E000E956E000E3B6F000E8447
:107F69006E000E8D6E000E966E000E3C6F010E04B3
:107F79006E12002C6E2CC02AF02A462A46C2502ABC
:107F890018830B2A18C26E1CD093840F01398512ED
:107F99000093860F013987120093820F01398312EA
:107FA9000093800F0139811200938A0F01398B12D6
:107FB9000094860F013A87120093800F01398112CC
:107FC900002C502A6E2B6A2B50000AD8A4F5D72A08
:107FD90050080AD8B4D9D7010AD8B4DAD7030AD8CD
:107FE900B4DBD7060AD8B4DCD7010AD8B4DDD70286
:077FF9000AD8B4DED7E1D77E
:020000040020DA
:08000000FFFFFFFFFFFFFFFF00
:020000040030CA
:0E000000FF281F3CFFBF85FF0FC00FE00F4021
:00000001FF
