:020000040000FA
:040000000EEF00F00F
:020004000000FA
:080008009EB237EF00F0F2B2E6
:1000100062EF00F028EF00F00CEF00F0D388D39AE5
:10002000D38C0F01806A896A926A386B816A8A6A06
:10003000010E936E396B836A8C6A956A3B6B000183
:10004000FF0E836EF28CF28EF288F2920AEF00F0CD
:100050009D827F0EBA6EF50EBB6E100E086E300ECE
:10006000056E000E066E070E076E35EF00F09E92CD
:10007000BC6A052E100051EC00F0300E056E0650E3
:1000800056EC00F0836E020E0626074E9D92FF0E80
:100090009DA2836E000E9DA2806EBC6A400E086E0B
:1000A0001000000E0662808E80461000F926110CAA
:1000B000010C410C130C830CFF0CD50CE30C030C4E
:1000C0009F0C250CF2928050096E08BE74EC00F073
:1000D00008BC79EC00F008BA7EEC00F008B883ECBC
:1000E00000F00950806E10000650806E88EC00F021
:1000F00012000650806E88EC00F012000650806EF0
:1001000088EC00F012000650806E88EC00F01200BF
:10011000050E0C6EFF0E0B6EFF0E0A6E0A2E8EEF92
:1001200000F00B2E8CEF00F00C2E8AEF00F0120086
:020000040030CA
:0100010028D6
:010002001FDE
:010003003CC0
:01000500BF3B
:010006008574
:010008000FE8
:01000900C036
:01000A000FE6
:01000B00E014
:01000C000FE4
:01000D0040B2
:00000001FF
